{
  "_format": "hh-sol-artifact-1",
  "contractName": "PikaBounchingNft",
  "sourceName": "contracts/ERC721/PikaBounchingNft.sol",
  "abi": [
    {
      "inputs": [
        {
          "internalType": "bool",
          "name": "_minting",
          "type": "bool"
        },
        {
          "internalType": "bool",
          "name": "_updatableSeed",
          "type": "bool"
        },
        {
          "internalType": "uint256",
          "name": "_mintCost",
          "type": "uint256"
        },
        {
          "internalType": "uint256",
          "name": "_maxSupply",
          "type": "uint256"
        },
        {
          "internalType": "uint256",
          "name": "_maxMintAmountPerTx",
          "type": "uint256"
        },
        {
          "internalType": "uint256",
          "name": "_mintLimit",
          "type": "uint256"
        },
        {
          "internalType": "contract IPBDescriptor",
          "name": "newDescriptor",
          "type": "address"
        }
      ],
      "stateMutability": "nonpayable",
      "type": "constructor"
    },
    {
      "anonymous": false,
      "inputs": [
        {
          "indexed": true,
          "internalType": "address",
          "name": "owner",
          "type": "address"
        },
        {
          "indexed": true,
          "internalType": "address",
          "name": "approved",
          "type": "address"
        },
        {
          "indexed": true,
          "internalType": "uint256",
          "name": "tokenId",
          "type": "uint256"
        }
      ],
      "name": "Approval",
      "type": "event"
    },
    {
      "anonymous": false,
      "inputs": [
        {
          "indexed": true,
          "internalType": "address",
          "name": "owner",
          "type": "address"
        },
        {
          "indexed": true,
          "internalType": "address",
          "name": "operator",
          "type": "address"
        },
        {
          "indexed": false,
          "internalType": "bool",
          "name": "approved",
          "type": "bool"
        }
      ],
      "name": "ApprovalForAll",
      "type": "event"
    },
    {
      "anonymous": false,
      "inputs": [
        {
          "indexed": true,
          "internalType": "address",
          "name": "previousOwner",
          "type": "address"
        },
        {
          "indexed": true,
          "internalType": "address",
          "name": "newOwner",
          "type": "address"
        }
      ],
      "name": "OwnershipTransferred",
      "type": "event"
    },
    {
      "anonymous": false,
      "inputs": [
        {
          "indexed": true,
          "internalType": "uint256",
          "name": "tokenId",
          "type": "uint256"
        },
        {
          "indexed": false,
          "internalType": "uint256",
          "name": "seed",
          "type": "uint256"
        }
      ],
      "name": "SeedUpdated",
      "type": "event"
    },
    {
      "anonymous": false,
      "inputs": [
        {
          "indexed": true,
          "internalType": "address",
          "name": "from",
          "type": "address"
        },
        {
          "indexed": true,
          "internalType": "address",
          "name": "to",
          "type": "address"
        },
        {
          "indexed": true,
          "internalType": "uint256",
          "name": "tokenId",
          "type": "uint256"
        }
      ],
      "name": "Transfer",
      "type": "event"
    },
    {
      "inputs": [
        {
          "internalType": "address",
          "name": "to",
          "type": "address"
        },
        {
          "internalType": "uint256",
          "name": "tokenId",
          "type": "uint256"
        }
      ],
      "name": "approve",
      "outputs": [],
      "stateMutability": "nonpayable",
      "type": "function"
    },
    {
      "inputs": [
        {
          "internalType": "address",
          "name": "owner",
          "type": "address"
        }
      ],
      "name": "balanceOf",
      "outputs": [
        {
          "internalType": "uint256",
          "name": "",
          "type": "uint256"
        }
      ],
      "stateMutability": "view",
      "type": "function"
    },
    {
      "inputs": [],
      "name": "beneficiaryAddr",
      "outputs": [
        {
          "internalType": "address",
          "name": "",
          "type": "address"
        }
      ],
      "stateMutability": "view",
      "type": "function"
    },
    {
      "inputs": [
        {
          "internalType": "uint256",
          "name": "tokenId",
          "type": "uint256"
        }
      ],
      "name": "burn",
      "outputs": [],
      "stateMutability": "nonpayable",
      "type": "function"
    },
    {
      "inputs": [],
      "name": "descriptor",
      "outputs": [
        {
          "internalType": "contract IPBDescriptor",
          "name": "",
          "type": "address"
        }
      ],
      "stateMutability": "view",
      "type": "function"
    },
    {
      "inputs": [],
      "name": "disableSeedUpdate",
      "outputs": [],
      "stateMutability": "nonpayable",
      "type": "function"
    },
    {
      "inputs": [
        {
          "internalType": "uint256",
          "name": "tokenId",
          "type": "uint256"
        }
      ],
      "name": "getApproved",
      "outputs": [
        {
          "internalType": "address",
          "name": "",
          "type": "address"
        }
      ],
      "stateMutability": "view",
      "type": "function"
    },
    {
      "inputs": [
        {
          "internalType": "uint256",
          "name": "tokenId",
          "type": "uint256"
        }
      ],
      "name": "getSeed",
      "outputs": [
        {
          "internalType": "uint256",
          "name": "",
          "type": "uint256"
        }
      ],
      "stateMutability": "view",
      "type": "function"
    },
    {
      "inputs": [],
      "name": "getmintCount",
      "outputs": [
        {
          "internalType": "uint256",
          "name": "",
          "type": "uint256"
        }
      ],
      "stateMutability": "view",
      "type": "function"
    },
    {
      "inputs": [
        {
          "internalType": "address",
          "name": "owner",
          "type": "address"
        },
        {
          "internalType": "address",
          "name": "operator",
          "type": "address"
        }
      ],
      "name": "isApprovedForAll",
      "outputs": [
        {
          "internalType": "bool",
          "name": "",
          "type": "bool"
        }
      ],
      "stateMutability": "view",
      "type": "function"
    },
    {
      "inputs": [],
      "name": "maxMintAmountPerTx",
      "outputs": [
        {
          "internalType": "uint256",
          "name": "",
          "type": "uint256"
        }
      ],
      "stateMutability": "view",
      "type": "function"
    },
    {
      "inputs": [],
      "name": "maxSupply",
      "outputs": [
        {
          "internalType": "uint256",
          "name": "",
          "type": "uint256"
        }
      ],
      "stateMutability": "view",
      "type": "function"
    },
    {
      "inputs": [
        {
          "internalType": "uint256",
          "name": "_mintAmount",
          "type": "uint256"
        }
      ],
      "name": "mint",
      "outputs": [],
      "stateMutability": "payable",
      "type": "function"
    },
    {
      "inputs": [],
      "name": "mintCost",
      "outputs": [
        {
          "internalType": "uint256",
          "name": "",
          "type": "uint256"
        }
      ],
      "stateMutability": "view",
      "type": "function"
    },
    {
      "inputs": [
        {
          "internalType": "address",
          "name": "",
          "type": "address"
        }
      ],
      "name": "mintCount",
      "outputs": [
        {
          "internalType": "uint256",
          "name": "",
          "type": "uint256"
        }
      ],
      "stateMutability": "view",
      "type": "function"
    },
    {
      "inputs": [],
      "name": "mintingStatus",
      "outputs": [
        {
          "internalType": "bool",
          "name": "",
          "type": "bool"
        }
      ],
      "stateMutability": "view",
      "type": "function"
    },
    {
      "inputs": [],
      "name": "name",
      "outputs": [
        {
          "internalType": "string",
          "name": "",
          "type": "string"
        }
      ],
      "stateMutability": "view",
      "type": "function"
    },
    {
      "inputs": [],
      "name": "owner",
      "outputs": [
        {
          "internalType": "address",
          "name": "",
          "type": "address"
        }
      ],
      "stateMutability": "view",
      "type": "function"
    },
    {
      "inputs": [
        {
          "internalType": "uint256",
          "name": "tokenId",
          "type": "uint256"
        }
      ],
      "name": "ownerOf",
      "outputs": [
        {
          "internalType": "address",
          "name": "",
          "type": "address"
        }
      ],
      "stateMutability": "view",
      "type": "function"
    },
    {
      "inputs": [],
      "name": "renounceOwnership",
      "outputs": [],
      "stateMutability": "nonpayable",
      "type": "function"
    },
    {
      "inputs": [
        {
          "internalType": "address",
          "name": "from",
          "type": "address"
        },
        {
          "internalType": "address",
          "name": "to",
          "type": "address"
        },
        {
          "internalType": "uint256",
          "name": "tokenId",
          "type": "uint256"
        }
      ],
      "name": "safeTransferFrom",
      "outputs": [],
      "stateMutability": "nonpayable",
      "type": "function"
    },
    {
      "inputs": [
        {
          "internalType": "address",
          "name": "from",
          "type": "address"
        },
        {
          "internalType": "address",
          "name": "to",
          "type": "address"
        },
        {
          "internalType": "uint256",
          "name": "tokenId",
          "type": "uint256"
        },
        {
          "internalType": "bytes",
          "name": "data",
          "type": "bytes"
        }
      ],
      "name": "safeTransferFrom",
      "outputs": [],
      "stateMutability": "nonpayable",
      "type": "function"
    },
    {
      "inputs": [
        {
          "internalType": "address",
          "name": "operator",
          "type": "address"
        },
        {
          "internalType": "bool",
          "name": "approved",
          "type": "bool"
        }
      ],
      "name": "setApprovalForAll",
      "outputs": [],
      "stateMutability": "nonpayable",
      "type": "function"
    },
    {
      "inputs": [
        {
          "internalType": "contract IPBDescriptor",
          "name": "newDescriptor",
          "type": "address"
        }
      ],
      "name": "setDescriptor",
      "outputs": [],
      "stateMutability": "nonpayable",
      "type": "function"
    },
    {
      "inputs": [
        {
          "internalType": "bool",
          "name": "value",
          "type": "bool"
        }
      ],
      "name": "setMinting",
      "outputs": [],
      "stateMutability": "nonpayable",
      "type": "function"
    },
    {
      "inputs": [
        {
          "internalType": "bytes4",
          "name": "interfaceId",
          "type": "bytes4"
        }
      ],
      "name": "supportsInterface",
      "outputs": [
        {
          "internalType": "bool",
          "name": "",
          "type": "bool"
        }
      ],
      "stateMutability": "view",
      "type": "function"
    },
    {
      "inputs": [],
      "name": "symbol",
      "outputs": [
        {
          "internalType": "string",
          "name": "",
          "type": "string"
        }
      ],
      "stateMutability": "view",
      "type": "function"
    },
    {
      "inputs": [
        {
          "internalType": "uint256",
          "name": "index",
          "type": "uint256"
        }
      ],
      "name": "tokenByIndex",
      "outputs": [
        {
          "internalType": "uint256",
          "name": "",
          "type": "uint256"
        }
      ],
      "stateMutability": "view",
      "type": "function"
    },
    {
      "inputs": [
        {
          "internalType": "address",
          "name": "owner",
          "type": "address"
        },
        {
          "internalType": "uint256",
          "name": "index",
          "type": "uint256"
        }
      ],
      "name": "tokenOfOwnerByIndex",
      "outputs": [
        {
          "internalType": "uint256",
          "name": "",
          "type": "uint256"
        }
      ],
      "stateMutability": "view",
      "type": "function"
    },
    {
      "inputs": [
        {
          "internalType": "uint256",
          "name": "tokenId",
          "type": "uint256"
        }
      ],
      "name": "tokenURI",
      "outputs": [
        {
          "internalType": "string",
          "name": "",
          "type": "string"
        }
      ],
      "stateMutability": "view",
      "type": "function"
    },
    {
      "inputs": [],
      "name": "totalSupply",
      "outputs": [
        {
          "internalType": "uint256",
          "name": "",
          "type": "uint256"
        }
      ],
      "stateMutability": "view",
      "type": "function"
    },
    {
      "inputs": [
        {
          "internalType": "address",
          "name": "from",
          "type": "address"
        },
        {
          "internalType": "address",
          "name": "to",
          "type": "address"
        },
        {
          "internalType": "uint256",
          "name": "tokenId",
          "type": "uint256"
        }
      ],
      "name": "transferFrom",
      "outputs": [],
      "stateMutability": "nonpayable",
      "type": "function"
    },
    {
      "inputs": [
        {
          "internalType": "address",
          "name": "newOwner",
          "type": "address"
        }
      ],
      "name": "transferOwnership",
      "outputs": [],
      "stateMutability": "nonpayable",
      "type": "function"
    },
    {
      "inputs": [],
      "name": "updatableSeed",
      "outputs": [
        {
          "internalType": "bool",
          "name": "",
          "type": "bool"
        }
      ],
      "stateMutability": "view",
      "type": "function"
    },
    {
      "inputs": [
        {
          "internalType": "uint256",
          "name": "tokenId",
          "type": "uint256"
        },
        {
          "internalType": "uint256",
          "name": "seed",
          "type": "uint256"
        }
      ],
      "name": "updateSeed",
      "outputs": [],
      "stateMutability": "nonpayable",
      "type": "function"
    }
  ],
  "bytecode": "0x60a06040523480156200001157600080fd5b5060405162004a5038038062004a508339818101604052810190620000379190620003c6565b6040518060400160405280601281526020017f50696b6120426f756e6368696e67204e667400000000000000000000000000008152506040518060400160405280600381526020017f6f2e4f00000000000000000000000000000000000000000000000000000000008152508160009081620000b49190620006e9565b508060019081620000c69190620006e9565b505050620000e9620000dd620001d860201b60201c565b620001e060201b60201c565b86601260006101000a81548160ff02191690831515021790555085601260016101000a81548160ff02191690831515021790555084600f81905550836080818152505082601081905550816011819055506200014a620002a660201b60201c565b601260026101000a81548173ffffffffffffffffffffffffffffffffffffffff021916908373ffffffffffffffffffffffffffffffffffffffff16021790555080600e60006101000a81548173ffffffffffffffffffffffffffffffffffffffff021916908373ffffffffffffffffffffffffffffffffffffffff16021790555050505050505050620007d0565b600033905090565b6000600a60009054906101000a900473ffffffffffffffffffffffffffffffffffffffff16905081600a60006101000a81548173ffffffffffffffffffffffffffffffffffffffff021916908373ffffffffffffffffffffffffffffffffffffffff1602179055508173ffffffffffffffffffffffffffffffffffffffff168173ffffffffffffffffffffffffffffffffffffffff167f8be0079c531659141344cd1fd0a4f28419497f9722a3daafe3b4186f6b6457e060405160405180910390a35050565b6000600a60009054906101000a900473ffffffffffffffffffffffffffffffffffffffff16905090565b600080fd5b60008115159050919050565b620002ec81620002d5565b8114620002f857600080fd5b50565b6000815190506200030c81620002e1565b92915050565b6000819050919050565b620003278162000312565b81146200033357600080fd5b50565b60008151905062000347816200031c565b92915050565b600073ffffffffffffffffffffffffffffffffffffffff82169050919050565b60006200037a826200034d565b9050919050565b60006200038e826200036d565b9050919050565b620003a08162000381565b8114620003ac57600080fd5b50565b600081519050620003c08162000395565b92915050565b600080600080600080600060e0888a031215620003e857620003e7620002d0565b5b6000620003f88a828b01620002fb565b97505060206200040b8a828b01620002fb565b96505060406200041e8a828b0162000336565b9550506060620004318a828b0162000336565b9450506080620004448a828b0162000336565b93505060a0620004578a828b0162000336565b92505060c06200046a8a828b01620003af565b91505092959891949750929550565b600081519050919050565b7f4e487b7100000000000000000000000000000000000000000000000000000000600052604160045260246000fd5b7f4e487b7100000000000000000000000000000000000000000000000000000000600052602260045260246000fd5b60006002820490506001821680620004fb57607f821691505b602082108103620005115762000510620004b3565b5b50919050565b60008190508160005260206000209050919050565b60006020601f8301049050919050565b600082821b905092915050565b6000600883026200057b7fffffffffffffffffffffffffffffffffffffffffffffffffffffffffffffffff826200053c565b6200058786836200053c565b95508019841693508086168417925050509392505050565b6000819050919050565b6000620005ca620005c4620005be8462000312565b6200059f565b62000312565b9050919050565b6000819050919050565b620005e683620005a9565b620005fe620005f582620005d1565b84845462000549565b825550505050565b600090565b6200061562000606565b62000622818484620005db565b505050565b5b818110156200064a576200063e6000826200060b565b60018101905062000628565b5050565b601f8211156200069957620006638162000517565b6200066e846200052c565b810160208510156200067e578190505b620006966200068d856200052c565b83018262000627565b50505b505050565b600082821c905092915050565b6000620006be600019846008026200069e565b1980831691505092915050565b6000620006d98383620006ab565b9150826002028217905092915050565b620006f48262000479565b67ffffffffffffffff81111562000710576200070f62000484565b5b6200071c8254620004e2565b620007298282856200064e565b600060209050601f8311600181146200076157600084156200074c578287015190505b620007588582620006cb565b865550620007c8565b601f198416620007718662000517565b60005b828110156200079b5784890151825560018201915060208501945060208101905062000774565b86831015620007bb5784890151620007b7601f891682620006ab565b8355505b6001600288020188555050505b505050505050565b60805161425d620007f36000396000818161111701526114f6015261425d6000f3fe6080604052600436106102045760003560e01c80636352211e11610118578063b88d4fde116100a0578063d5abeb011161006f578063d5abeb0114610748578063e0d4ea3714610773578063e985e9c5146107b0578063ed9ec888146107ed578063f2fde38b1461082a57610204565b8063b88d4fde1461068c578063b9e9aec1146106b5578063bdb4b848146106e0578063c87b56dd1461070b57610204565b806394354fd0116100e757806394354fd0146105c857806395d89b41146105f3578063a0712d681461061e578063a22cb4651461063a578063b4c7f0661461066357610204565b80636352211e1461050c57806370a0823114610549578063715018a6146105865780638da5cb5b1461059d57610204565b80632f745c591161019b57806342842e0e1161016a57806342842e0e1461042757806342966c68146104505780634f6ccce7146104795780635619f443146104b657806362876703146104e157610204565b80632f745c591461037d578063303e74df146103ba57806333abe544146103e55780633bb2c9381461041057610204565b8063095ea7b3116101d7578063095ea7b3146102d7578063176b72b41461030057806318160ddd1461032957806323b872dd1461035457610204565b806301b9a3971461020957806301ffc9a71461023257806306fdde031461026f578063081812fc1461029a575b600080fd5b34801561021557600080fd5b50610230600480360381019061022b9190612bc2565b610853565b005b34801561023e57600080fd5b5061025960048036038101906102549190612c47565b61089f565b6040516102669190612c8f565b60405180910390f35b34801561027b57600080fd5b50610284610919565b6040516102919190612d3a565b60405180910390f35b3480156102a657600080fd5b506102c160048036038101906102bc9190612d92565b6109ab565b6040516102ce9190612dce565b60405180910390f35b3480156102e357600080fd5b506102fe60048036038101906102f99190612e15565b6109f1565b005b34801561030c57600080fd5b5061032760048036038101906103229190612e55565b610b08565b005b34801561033557600080fd5b5061033e610bb3565b60405161034b9190612ea4565b60405180910390f35b34801561036057600080fd5b5061037b60048036038101906103769190612ebf565b610bc4565b005b34801561038957600080fd5b506103a4600480360381019061039f9190612e15565b610c24565b6040516103b19190612ea4565b60405180910390f35b3480156103c657600080fd5b506103cf610cc9565b6040516103dc9190612f71565b60405180910390f35b3480156103f157600080fd5b506103fa610cef565b6040516104079190612c8f565b60405180910390f35b34801561041c57600080fd5b50610425610d02565b005b34801561043357600080fd5b5061044e60048036038101906104499190612ebf565b610d27565b005b34801561045c57600080fd5b5061047760048036038101906104729190612d92565b610d47565b005b34801561048557600080fd5b506104a0600480360381019061049b9190612d92565b610dba565b6040516104ad9190612ea4565b60405180910390f35b3480156104c257600080fd5b506104cb610e2b565b6040516104d89190612ea4565b60405180910390f35b3480156104ed57600080fd5b506104f6610e72565b6040516105039190612c8f565b60405180910390f35b34801561051857600080fd5b50610533600480360381019061052e9190612d92565b610e85565b6040516105409190612dce565b60405180910390f35b34801561055557600080fd5b50610570600480360381019061056b9190612f8c565b610f36565b60405161057d9190612ea4565b60405180910390f35b34801561059257600080fd5b5061059b610fed565b005b3480156105a957600080fd5b506105b2611001565b6040516105bf9190612dce565b60405180910390f35b3480156105d457600080fd5b506105dd61102b565b6040516105ea9190612ea4565b60405180910390f35b3480156105ff57600080fd5b50610608611031565b6040516106159190612d3a565b60405180910390f35b61063860048036038101906106339190612d92565b6110c3565b005b34801561064657600080fd5b50610661600480360381019061065c9190612fe5565b61131e565b005b34801561066f57600080fd5b5061068a60048036038101906106859190613025565b611334565b005b34801561069857600080fd5b506106b360048036038101906106ae9190613187565b611359565b005b3480156106c157600080fd5b506106ca6113bb565b6040516106d79190612dce565b60405180910390f35b3480156106ec57600080fd5b506106f56113e1565b6040516107029190612ea4565b60405180910390f35b34801561071757600080fd5b50610732600480360381019061072d9190612d92565b6113e7565b60405161073f9190612d3a565b60405180910390f35b34801561075457600080fd5b5061075d6114f4565b60405161076a9190612ea4565b60405180910390f35b34801561077f57600080fd5b5061079a60048036038101906107959190612d92565b611518565b6040516107a79190612ea4565b60405180910390f35b3480156107bc57600080fd5b506107d760048036038101906107d2919061320a565b61157d565b6040516107e49190612c8f565b60405180910390f35b3480156107f957600080fd5b50610814600480360381019061080f9190612f8c565b611611565b6040516108219190612ea4565b60405180910390f35b34801561083657600080fd5b50610851600480360381019061084c9190612f8c565b611629565b005b61085b6116ac565b80600e60006101000a81548173ffffffffffffffffffffffffffffffffffffffff021916908373ffffffffffffffffffffffffffffffffffffffff16021790555050565b60007f780e9d63000000000000000000000000000000000000000000000000000000007bffffffffffffffffffffffffffffffffffffffffffffffffffffffff1916827bffffffffffffffffffffffffffffffffffffffffffffffffffffffff1916148061091257506109118261172a565b5b9050919050565b60606000805461092890613279565b80601f016020809104026020016040519081016040528092919081815260200182805461095490613279565b80156109a15780601f10610976576101008083540402835291602001916109a1565b820191906000526020600020905b81548152906001019060200180831161098457829003601f168201915b5050505050905090565b60006109b68261180c565b6004600083815260200190815260200160002060009054906101000a900473ffffffffffffffffffffffffffffffffffffffff169050919050565b60006109fc82610e85565b90508073ffffffffffffffffffffffffffffffffffffffff168373ffffffffffffffffffffffffffffffffffffffff1603610a6c576040517f08c379a0000000000000000000000000000000000000000000000000000000008152600401610a639061331c565b60405180910390fd5b8073ffffffffffffffffffffffffffffffffffffffff16610a8b611857565b73ffffffffffffffffffffffffffffffffffffffff161480610aba5750610ab981610ab4611857565b61157d565b5b610af9576040517f08c379a0000000000000000000000000000000000000000000000000000000008152600401610af0906133ae565b60405180910390fd5b610b03838361185f565b505050565b610b106116ac565b601260019054906101000a900460ff16610b5f576040517f08c379a0000000000000000000000000000000000000000000000000000000008152600401610b569061341a565b60405180910390fd5b80600c600084815260200190815260200160002081905550817faabfe5e8bccf1a1352f72b557ce580211305c37f88d5783ae467a1ba5e0761e082604051610ba79190612ea4565b60405180910390a25050565b6000610bbf600b611918565b905090565b610bd5610bcf611857565b82611926565b610c14576040517f08c379a0000000000000000000000000000000000000000000000000000000008152600401610c0b906134ac565b60405180910390fd5b610c1f8383836119bb565b505050565b6000610c2f83610f36565b8210610c70576040517f08c379a0000000000000000000000000000000000000000000000000000000008152600401610c679061353e565b60405180910390fd5b600660008473ffffffffffffffffffffffffffffffffffffffff1673ffffffffffffffffffffffffffffffffffffffff168152602001908152602001600020600083815260200190815260200160002054905092915050565b600e60009054906101000a900473ffffffffffffffffffffffffffffffffffffffff1681565b601260009054906101000a900460ff1681565b610d0a6116ac565b6000601260016101000a81548160ff021916908315150217905550565b610d4283838360405180602001604052806000815250611359565b505050565b610d58610d52611857565b82611926565b610d97576040517f08c379a0000000000000000000000000000000000000000000000000000000008152600401610d8e906135aa565b60405180910390fd5b600c600082815260200190815260200160002060009055610db781611c21565b50565b6000610dc4611d3e565b8210610e05576040517f08c379a0000000000000000000000000000000000000000000000000000000008152600401610dfc9061363c565b60405180910390fd5b60088281548110610e1957610e1861365c565b5b90600052602060002001549050919050565b6000600d60003373ffffffffffffffffffffffffffffffffffffffff1673ffffffffffffffffffffffffffffffffffffffff16815260200190815260200160002054905090565b601260019054906101000a900460ff1681565b6000806002600084815260200190815260200160002060009054906101000a900473ffffffffffffffffffffffffffffffffffffffff169050600073ffffffffffffffffffffffffffffffffffffffff168173ffffffffffffffffffffffffffffffffffffffff1603610f2d576040517f08c379a0000000000000000000000000000000000000000000000000000000008152600401610f24906136d7565b60405180910390fd5b80915050919050565b60008073ffffffffffffffffffffffffffffffffffffffff168273ffffffffffffffffffffffffffffffffffffffff1603610fa6576040517f08c379a0000000000000000000000000000000000000000000000000000000008152600401610f9d90613769565b60405180910390fd5b600360008373ffffffffffffffffffffffffffffffffffffffff1673ffffffffffffffffffffffffffffffffffffffff168152602001908152602001600020549050919050565b610ff56116ac565b610fff6000611d4b565b565b6000600a60009054906101000a900473ffffffffffffffffffffffffffffffffffffffff16905090565b60105481565b60606001805461104090613279565b80601f016020809104026020016040519081016040528092919081815260200182805461106c90613279565b80156110b95780601f1061108e576101008083540402835291602001916110b9565b820191906000526020600020905b81548152906001019060200180831161109c57829003601f168201915b5050505050905090565b806000811180156110d657506010548111155b611115576040517f08c379a000000000000000000000000000000000000000000000000000000000815260040161110c906137d5565b60405180910390fd5b7f000000000000000000000000000000000000000000000000000000000000000081611141600b611918565b61114b9190613824565b111561118c576040517f08c379a0000000000000000000000000000000000000000000000000000000008152600401611183906138a4565b60405180910390fd5b601260009054906101000a900460ff166111db576040517f08c379a00000000000000000000000000000000000000000000000000000000081526004016111d290613910565b60405180910390fd5b81600f546111e99190613930565b34101561122b576040517f08c379a0000000000000000000000000000000000000000000000000000000008152600401611222906139be565b60405180910390fd5b60115482600d60003373ffffffffffffffffffffffffffffffffffffffff1673ffffffffffffffffffffffffffffffffffffffff168152602001908152602001600020546112799190613824565b11156112ba576040517f08c379a00000000000000000000000000000000000000000000000000000000081526004016112b190613a2a565b60405180910390fd5b6112c43383611e11565b81600d60003373ffffffffffffffffffffffffffffffffffffffff1673ffffffffffffffffffffffffffffffffffffffff16815260200190815260200160002060008282546113139190613824565b925050819055505050565b611330611329611857565b8383611ef4565b5050565b61133c6116ac565b80601260006101000a81548160ff02191690831515021790555050565b61136a611364611857565b83611926565b6113a9576040517f08c379a00000000000000000000000000000000000000000000000000000000081526004016113a0906134ac565b60405180910390fd5b6113b584848484612060565b50505050565b601260029054906101000a900473ffffffffffffffffffffffffffffffffffffffff1681565b600f5481565b60606113f2826120bc565b611431576040517f08c379a000000000000000000000000000000000000000000000000000000000815260040161142890613a96565b60405180910390fd5b6000600c6000848152602001908152602001600020549050600e60009054906101000a900473ffffffffffffffffffffffffffffffffffffffff1673ffffffffffffffffffffffffffffffffffffffff166392cb829d84836040518363ffffffff1660e01b81526004016114a6929190613ab6565b600060405180830381865afa1580156114c3573d6000803e3d6000fd5b505050506040513d6000823e3d601f19601f820116820180604052508101906114ec9190613b80565b915050919050565b7f000000000000000000000000000000000000000000000000000000000000000081565b6000611523826120bc565b611562576040517f08c379a000000000000000000000000000000000000000000000000000000000815260040161155990613a96565b60405180910390fd5b600c6000838152602001908152602001600020549050919050565b6000600560008473ffffffffffffffffffffffffffffffffffffffff1673ffffffffffffffffffffffffffffffffffffffff16815260200190815260200160002060008373ffffffffffffffffffffffffffffffffffffffff1673ffffffffffffffffffffffffffffffffffffffff16815260200190815260200160002060009054906101000a900460ff16905092915050565b600d6020528060005260406000206000915090505481565b6116316116ac565b600073ffffffffffffffffffffffffffffffffffffffff168173ffffffffffffffffffffffffffffffffffffffff16036116a0576040517f08c379a000000000000000000000000000000000000000000000000000000000815260040161169790613c3b565b60405180910390fd5b6116a981611d4b565b50565b6116b4611857565b73ffffffffffffffffffffffffffffffffffffffff166116d2611001565b73ffffffffffffffffffffffffffffffffffffffff1614611728576040517f08c379a000000000000000000000000000000000000000000000000000000000815260040161171f90613ca7565b60405180910390fd5b565b60007f80ac58cd000000000000000000000000000000000000000000000000000000007bffffffffffffffffffffffffffffffffffffffffffffffffffffffff1916827bffffffffffffffffffffffffffffffffffffffffffffffffffffffff191614806117f557507f5b5e139f000000000000000000000000000000000000000000000000000000007bffffffffffffffffffffffffffffffffffffffffffffffffffffffff1916827bffffffffffffffffffffffffffffffffffffffffffffffffffffffff1916145b80611805575061180482612128565b5b9050919050565b611815816120bc565b611854576040517f08c379a000000000000000000000000000000000000000000000000000000000815260040161184b906136d7565b60405180910390fd5b50565b600033905090565b816004600083815260200190815260200160002060006101000a81548173ffffffffffffffffffffffffffffffffffffffff021916908373ffffffffffffffffffffffffffffffffffffffff160217905550808273ffffffffffffffffffffffffffffffffffffffff166118d283610e85565b73ffffffffffffffffffffffffffffffffffffffff167f8c5be1e5ebec7d5bd14f71427d1e84f3dd0314c0f7b2291e5b200ac8c7c3b92560405160405180910390a45050565b600081600001549050919050565b60008061193283610e85565b90508073ffffffffffffffffffffffffffffffffffffffff168473ffffffffffffffffffffffffffffffffffffffff1614806119745750611973818561157d565b5b806119b257508373ffffffffffffffffffffffffffffffffffffffff1661199a846109ab565b73ffffffffffffffffffffffffffffffffffffffff16145b91505092915050565b8273ffffffffffffffffffffffffffffffffffffffff166119db82610e85565b73ffffffffffffffffffffffffffffffffffffffff1614611a31576040517f08c379a0000000000000000000000000000000000000000000000000000000008152600401611a2890613d39565b60405180910390fd5b600073ffffffffffffffffffffffffffffffffffffffff168273ffffffffffffffffffffffffffffffffffffffff1603611aa0576040517f08c379a0000000000000000000000000000000000000000000000000000000008152600401611a9790613dcb565b60405180910390fd5b611aab838383612192565b611ab660008261185f565b6001600360008573ffffffffffffffffffffffffffffffffffffffff1673ffffffffffffffffffffffffffffffffffffffff1681526020019081526020016000206000828254611b069190613deb565b925050819055506001600360008473ffffffffffffffffffffffffffffffffffffffff1673ffffffffffffffffffffffffffffffffffffffff1681526020019081526020016000206000828254611b5d9190613824565b92505081905550816002600083815260200190815260200160002060006101000a81548173ffffffffffffffffffffffffffffffffffffffff021916908373ffffffffffffffffffffffffffffffffffffffff160217905550808273ffffffffffffffffffffffffffffffffffffffff168473ffffffffffffffffffffffffffffffffffffffff167fddf252ad1be2c89b69c2b068fc378daa952ba7f163c4a11628f55a4df523b3ef60405160405180910390a4611c1c8383836122a4565b505050565b6000611c2c82610e85565b9050611c3a81600084612192565b611c4560008361185f565b6001600360008373ffffffffffffffffffffffffffffffffffffffff1673ffffffffffffffffffffffffffffffffffffffff1681526020019081526020016000206000828254611c959190613deb565b925050819055506002600083815260200190815260200160002060006101000a81549073ffffffffffffffffffffffffffffffffffffffff021916905581600073ffffffffffffffffffffffffffffffffffffffff168273ffffffffffffffffffffffffffffffffffffffff167fddf252ad1be2c89b69c2b068fc378daa952ba7f163c4a11628f55a4df523b3ef60405160405180910390a4611d3a816000846122a4565b5050565b6000600880549050905090565b6000600a60009054906101000a900473ffffffffffffffffffffffffffffffffffffffff16905081600a60006101000a81548173ffffffffffffffffffffffffffffffffffffffff021916908373ffffffffffffffffffffffffffffffffffffffff1602179055508173ffffffffffffffffffffffffffffffffffffffff168173ffffffffffffffffffffffffffffffffffffffff167f8be0079c531659141344cd1fd0a4f28419497f9722a3daafe3b4186f6b6457e060405160405180910390a35050565b60005b81811015611e7c5760006001611e28610bb3565b611e329190613824565b9050611e3d816122a9565b600c600083815260200190815260200160002081905550611e5e8482612458565b611e68600b612631565b508080611e7490613e1f565b915050611e14565b506000471115611ef057601260029054906101000a900473ffffffffffffffffffffffffffffffffffffffff1673ffffffffffffffffffffffffffffffffffffffff166108fc479081150290604051600060405180830381858888f19350505050158015611eee573d6000803e3d6000fd5b505b5050565b8173ffffffffffffffffffffffffffffffffffffffff168373ffffffffffffffffffffffffffffffffffffffff1603611f62576040517f08c379a0000000000000000000000000000000000000000000000000000000008152600401611f5990613eb3565b60405180910390fd5b80600560008573ffffffffffffffffffffffffffffffffffffffff1673ffffffffffffffffffffffffffffffffffffffff16815260200190815260200160002060008473ffffffffffffffffffffffffffffffffffffffff1673ffffffffffffffffffffffffffffffffffffffff16815260200190815260200160002060006101000a81548160ff0219169083151502179055508173ffffffffffffffffffffffffffffffffffffffff168373ffffffffffffffffffffffffffffffffffffffff167f17307eab39ab6107e8899845ad3d59bd9653f200f220920489ca2b5937696c31836040516120539190612c8f565b60405180910390a3505050565b61206b8484846119bb565b61207784848484612647565b6120b6576040517f08c379a00000000000000000000000000000000000000000000000000000000081526004016120ad90613f45565b60405180910390fd5b50505050565b60008073ffffffffffffffffffffffffffffffffffffffff166002600084815260200190815260200160002060009054906101000a900473ffffffffffffffffffffffffffffffffffffffff1673ffffffffffffffffffffffffffffffffffffffff1614159050919050565b60007f01ffc9a7000000000000000000000000000000000000000000000000000000007bffffffffffffffffffffffffffffffffffffffffffffffffffffffff1916827bffffffffffffffffffffffffffffffffffffffffffffffffffffffff1916149050919050565b61219d8383836127ce565b600073ffffffffffffffffffffffffffffffffffffffff168373ffffffffffffffffffffffffffffffffffffffff16036121df576121da816127d3565b61221e565b8173ffffffffffffffffffffffffffffffffffffffff168373ffffffffffffffffffffffffffffffffffffffff161461221d5761221c838261281c565b5b5b600073ffffffffffffffffffffffffffffffffffffffff168273ffffffffffffffffffffffffffffffffffffffff16036122605761225b81612989565b61229f565b8273ffffffffffffffffffffffffffffffffffffffff168273ffffffffffffffffffffffffffffffffffffffff161461229e5761229d8282612a5a565b5b5b505050565b505050565b6000806122b583612ad9565b90506000600a6014603084901c6122cc9190613f94565b6122d69190613824565b600a6007846122e59190613f94565b6122ef9190613824565b60646122fb9190613930565b6123059190613824565b90506000600a6014606085901c61231c9190613f94565b6123269190613824565b600a6006606086901c6123399190613f94565b6123439190613824565b606461234f9190613930565b6123599190613824565b90506000600a6014609086901c6123709190613f94565b61237a9190613824565b600a6007609087901c61238d9190613f94565b6123979190613824565b60646123a39190613930565b6123ad9190613824565b90506000600a601460c087901c6123c49190613f94565b6123ce9190613824565b600a600260c088901c6123e19190613f94565b6123eb9190613824565b60646123f79190613930565b6124019190613824565b9050808284866127106124149190613930565b61241e9190613824565b61271061242b9190613930565b6124359190613824565b6127106124429190613930565b61244c9190613824565b95505050505050919050565b600073ffffffffffffffffffffffffffffffffffffffff168273ffffffffffffffffffffffffffffffffffffffff16036124c7576040517f08c379a00000000000000000000000000000000000000000000000000000000081526004016124be90614011565b60405180910390fd5b6124d0816120bc565b15612510576040517f08c379a00000000000000000000000000000000000000000000000000000000081526004016125079061407d565b60405180910390fd5b61251c60008383612192565b6001600360008473ffffffffffffffffffffffffffffffffffffffff1673ffffffffffffffffffffffffffffffffffffffff168152602001908152602001600020600082825461256c9190613824565b92505081905550816002600083815260200190815260200160002060006101000a81548173ffffffffffffffffffffffffffffffffffffffff021916908373ffffffffffffffffffffffffffffffffffffffff160217905550808273ffffffffffffffffffffffffffffffffffffffff16600073ffffffffffffffffffffffffffffffffffffffff167fddf252ad1be2c89b69c2b068fc378daa952ba7f163c4a11628f55a4df523b3ef60405160405180910390a461262d600083836122a4565b5050565b6001816000016000828254019250508190555050565b60006126688473ffffffffffffffffffffffffffffffffffffffff16612b1b565b156127c1578373ffffffffffffffffffffffffffffffffffffffff1663150b7a02612691611857565b8786866040518563ffffffff1660e01b81526004016126b394939291906140f2565b6020604051808303816000875af19250505080156126ef57506040513d601f19601f820116820180604052508101906126ec9190614153565b60015b612771573d806000811461271f576040519150601f19603f3d011682016040523d82523d6000602084013e612724565b606091505b506000815103612769576040517f08c379a000000000000000000000000000000000000000000000000000000000815260040161276090613f45565b60405180910390fd5b805181602001fd5b63150b7a0260e01b7bffffffffffffffffffffffffffffffffffffffffffffffffffffffff1916817bffffffffffffffffffffffffffffffffffffffffffffffffffffffff1916149150506127c6565b600190505b949350505050565b505050565b6008805490506009600083815260200190815260200160002081905550600881908060018154018082558091505060019003906000526020600020016000909190919091505550565b6000600161282984610f36565b6128339190613deb565b9050600060076000848152602001908152602001600020549050818114612918576000600660008673ffffffffffffffffffffffffffffffffffffffff1673ffffffffffffffffffffffffffffffffffffffff168152602001908152602001600020600084815260200190815260200160002054905080600660008773ffffffffffffffffffffffffffffffffffffffff1673ffffffffffffffffffffffffffffffffffffffff168152602001908152602001600020600084815260200190815260200160002081905550816007600083815260200190815260200160002081905550505b6007600084815260200190815260200160002060009055600660008573ffffffffffffffffffffffffffffffffffffffff1673ffffffffffffffffffffffffffffffffffffffff16815260200190815260200160002060008381526020019081526020016000206000905550505050565b6000600160088054905061299d9190613deb565b90506000600960008481526020019081526020016000205490506000600883815481106129cd576129cc61365c565b5b9060005260206000200154905080600883815481106129ef576129ee61365c565b5b906000526020600020018190555081600960008381526020019081526020016000208190555060096000858152602001908152602001600020600090556008805480612a3e57612a3d614180565b5b6001900381819060005260206000200160009055905550505050565b6000612a6583610f36565b905081600660008573ffffffffffffffffffffffffffffffffffffffff1673ffffffffffffffffffffffffffffffffffffffff168152602001908152602001600020600083815260200190815260200160002081905550806007600084815260200190815260200160002081905550505050565b6000600143612ae89190613deb565b4082604051602001612afb9291906141fb565b6040516020818303038152906040528051906020012060001c9050919050565b6000808273ffffffffffffffffffffffffffffffffffffffff163b119050919050565b6000604051905090565b600080fd5b600080fd5b600073ffffffffffffffffffffffffffffffffffffffff82169050919050565b6000612b7d82612b52565b9050919050565b6000612b8f82612b72565b9050919050565b612b9f81612b84565b8114612baa57600080fd5b50565b600081359050612bbc81612b96565b92915050565b600060208284031215612bd857612bd7612b48565b5b6000612be684828501612bad565b91505092915050565b60007fffffffff0000000000000000000000000000000000000000000000000000000082169050919050565b612c2481612bef565b8114612c2f57600080fd5b50565b600081359050612c4181612c1b565b92915050565b600060208284031215612c5d57612c5c612b48565b5b6000612c6b84828501612c32565b91505092915050565b60008115159050919050565b612c8981612c74565b82525050565b6000602082019050612ca46000830184612c80565b92915050565b600081519050919050565b600082825260208201905092915050565b60005b83811015612ce4578082015181840152602081019050612cc9565b60008484015250505050565b6000601f19601f8301169050919050565b6000612d0c82612caa565b612d168185612cb5565b9350612d26818560208601612cc6565b612d2f81612cf0565b840191505092915050565b60006020820190508181036000830152612d548184612d01565b905092915050565b6000819050919050565b612d6f81612d5c565b8114612d7a57600080fd5b50565b600081359050612d8c81612d66565b92915050565b600060208284031215612da857612da7612b48565b5b6000612db684828501612d7d565b91505092915050565b612dc881612b72565b82525050565b6000602082019050612de36000830184612dbf565b92915050565b612df281612b72565b8114612dfd57600080fd5b50565b600081359050612e0f81612de9565b92915050565b60008060408385031215612e2c57612e2b612b48565b5b6000612e3a85828601612e00565b9250506020612e4b85828601612d7d565b9150509250929050565b60008060408385031215612e6c57612e6b612b48565b5b6000612e7a85828601612d7d565b9250506020612e8b85828601612d7d565b9150509250929050565b612e9e81612d5c565b82525050565b6000602082019050612eb96000830184612e95565b92915050565b600080600060608486031215612ed857612ed7612b48565b5b6000612ee686828701612e00565b9350506020612ef786828701612e00565b9250506040612f0886828701612d7d565b9150509250925092565b6000819050919050565b6000612f37612f32612f2d84612b52565b612f12565b612b52565b9050919050565b6000612f4982612f1c565b9050919050565b6000612f5b82612f3e565b9050919050565b612f6b81612f50565b82525050565b6000602082019050612f866000830184612f62565b92915050565b600060208284031215612fa257612fa1612b48565b5b6000612fb084828501612e00565b91505092915050565b612fc281612c74565b8114612fcd57600080fd5b50565b600081359050612fdf81612fb9565b92915050565b60008060408385031215612ffc57612ffb612b48565b5b600061300a85828601612e00565b925050602061301b85828601612fd0565b9150509250929050565b60006020828403121561303b5761303a612b48565b5b600061304984828501612fd0565b91505092915050565b600080fd5b600080fd5b7f4e487b7100000000000000000000000000000000000000000000000000000000600052604160045260246000fd5b61309482612cf0565b810181811067ffffffffffffffff821117156130b3576130b261305c565b5b80604052505050565b60006130c6612b3e565b90506130d2828261308b565b919050565b600067ffffffffffffffff8211156130f2576130f161305c565b5b6130fb82612cf0565b9050602081019050919050565b82818337600083830152505050565b600061312a613125846130d7565b6130bc565b90508281526020810184848401111561314657613145613057565b5b613151848285613108565b509392505050565b600082601f83011261316e5761316d613052565b5b813561317e848260208601613117565b91505092915050565b600080600080608085870312156131a1576131a0612b48565b5b60006131af87828801612e00565b94505060206131c087828801612e00565b93505060406131d187828801612d7d565b925050606085013567ffffffffffffffff8111156131f2576131f1612b4d565b5b6131fe87828801613159565b91505092959194509250565b6000806040838503121561322157613220612b48565b5b600061322f85828601612e00565b925050602061324085828601612e00565b9150509250929050565b7f4e487b7100000000000000000000000000000000000000000000000000000000600052602260045260246000fd5b6000600282049050600182168061329157607f821691505b6020821081036132a4576132a361324a565b5b50919050565b7f4552433732313a20617070726f76616c20746f2063757272656e74206f776e6560008201527f7200000000000000000000000000000000000000000000000000000000000000602082015250565b6000613306602183612cb5565b9150613311826132aa565b604082019050919050565b60006020820190508181036000830152613335816132f9565b9050919050565b7f4552433732313a20617070726f76652063616c6c6572206973206e6f7420746f60008201527f6b656e206f776e6572206e6f7220617070726f76656420666f7220616c6c0000602082015250565b6000613398603e83612cb5565b91506133a38261333c565b604082019050919050565b600060208201905081810360008301526133c78161338b565b9050919050565b7f43616e6e6f742073657420746865207365656400000000000000000000000000600082015250565b6000613404601383612cb5565b915061340f826133ce565b602082019050919050565b60006020820190508181036000830152613433816133f7565b9050919050565b7f4552433732313a2063616c6c6572206973206e6f7420746f6b656e206f776e6560008201527f72206e6f7220617070726f766564000000000000000000000000000000000000602082015250565b6000613496602e83612cb5565b91506134a18261343a565b604082019050919050565b600060208201905081810360008301526134c581613489565b9050919050565b7f455243373231456e756d657261626c653a206f776e657220696e646578206f7560008201527f74206f6620626f756e6473000000000000000000000000000000000000000000602082015250565b6000613528602b83612cb5565b9150613533826134cc565b604082019050919050565b600060208201905081810360008301526135578161351b565b9050919050565b7f4e6f7420617070726f76656420746f206275726e2e0000000000000000000000600082015250565b6000613594601583612cb5565b915061359f8261355e565b602082019050919050565b600060208201905081810360008301526135c381613587565b9050919050565b7f455243373231456e756d657261626c653a20676c6f62616c20696e646578206f60008201527f7574206f6620626f756e64730000000000000000000000000000000000000000602082015250565b6000613626602c83612cb5565b9150613631826135ca565b604082019050919050565b6000602082019050818103600083015261365581613619565b9050919050565b7f4e487b7100000000000000000000000000000000000000000000000000000000600052603260045260246000fd5b7f4552433732313a20696e76616c696420746f6b656e2049440000000000000000600082015250565b60006136c1601883612cb5565b91506136cc8261368b565b602082019050919050565b600060208201905081810360008301526136f0816136b4565b9050919050565b7f4552433732313a2061646472657373207a65726f206973206e6f74206120766160008201527f6c6964206f776e65720000000000000000000000000000000000000000000000602082015250565b6000613753602983612cb5565b915061375e826136f7565b604082019050919050565b6000602082019050818103600083015261378281613746565b9050919050565b7f496e76616c6964206d696e7420616d6f756e7421000000000000000000000000600082015250565b60006137bf601483612cb5565b91506137ca82613789565b602082019050919050565b600060208201905081810360008301526137ee816137b2565b9050919050565b7f4e487b7100000000000000000000000000000000000000000000000000000000600052601160045260246000fd5b600061382f82612d5c565b915061383a83612d5c565b9250828201905080821115613852576138516137f5565b5b92915050565b7f57696c6c20657863656564206d6178696d756d20737570706c79210000000000600082015250565b600061388e601b83612cb5565b915061389982613858565b602082019050919050565b600060208201905081810360008301526138bd81613881565b9050919050565b7f4d696e74696e672066756e6374696f6e2069732064697361626c65642e000000600082015250565b60006138fa601d83612cb5565b9150613905826138c4565b602082019050919050565b60006020820190508181036000830152613929816138ed565b9050919050565b600061393b82612d5c565b915061394683612d5c565b925082820261395481612d5c565b9150828204841483151761396b5761396a6137f5565b5b5092915050565b7f496e73756666696369656e742066756e64732100000000000000000000000000600082015250565b60006139a8601383612cb5565b91506139b382613972565b602082019050919050565b600060208201905081810360008301526139d78161399b565b9050919050565b7f5075626c6963206d696e74206c696d6974206578636565646564000000000000600082015250565b6000613a14601a83612cb5565b9150613a1f826139de565b602082019050919050565b60006020820190508181036000830152613a4381613a07565b9050919050565b7f546f6b656e20494420646f6573206e6f742065786973742e0000000000000000600082015250565b6000613a80601883612cb5565b9150613a8b82613a4a565b602082019050919050565b60006020820190508181036000830152613aaf81613a73565b9050919050565b6000604082019050613acb6000830185612e95565b613ad86020830184612e95565b9392505050565b600067ffffffffffffffff821115613afa57613af961305c565b5b613b0382612cf0565b9050602081019050919050565b6000613b23613b1e84613adf565b6130bc565b905082815260208101848484011115613b3f57613b3e613057565b5b613b4a848285612cc6565b509392505050565b600082601f830112613b6757613b66613052565b5b8151613b77848260208601613b10565b91505092915050565b600060208284031215613b9657613b95612b48565b5b600082015167ffffffffffffffff811115613bb457613bb3612b4d565b5b613bc084828501613b52565b91505092915050565b7f4f776e61626c653a206e6577206f776e657220697320746865207a65726f206160008201527f6464726573730000000000000000000000000000000000000000000000000000602082015250565b6000613c25602683612cb5565b9150613c3082613bc9565b604082019050919050565b60006020820190508181036000830152613c5481613c18565b9050919050565b7f4f776e61626c653a2063616c6c6572206973206e6f7420746865206f776e6572600082015250565b6000613c91602083612cb5565b9150613c9c82613c5b565b602082019050919050565b60006020820190508181036000830152613cc081613c84565b9050919050565b7f4552433732313a207472616e736665722066726f6d20696e636f72726563742060008201527f6f776e6572000000000000000000000000000000000000000000000000000000602082015250565b6000613d23602583612cb5565b9150613d2e82613cc7565b604082019050919050565b60006020820190508181036000830152613d5281613d16565b9050919050565b7f4552433732313a207472616e7366657220746f20746865207a65726f2061646460008201527f7265737300000000000000000000000000000000000000000000000000000000602082015250565b6000613db5602483612cb5565b9150613dc082613d59565b604082019050919050565b60006020820190508181036000830152613de481613da8565b9050919050565b6000613df682612d5c565b9150613e0183612d5c565b9250828203905081811115613e1957613e186137f5565b5b92915050565b6000613e2a82612d5c565b91507fffffffffffffffffffffffffffffffffffffffffffffffffffffffffffffffff8203613e5c57613e5b6137f5565b5b600182019050919050565b7f4552433732313a20617070726f766520746f2063616c6c657200000000000000600082015250565b6000613e9d601983612cb5565b9150613ea882613e67565b602082019050919050565b60006020820190508181036000830152613ecc81613e90565b9050919050565b7f4552433732313a207472616e7366657220746f206e6f6e20455243373231526560008201527f63656976657220696d706c656d656e7465720000000000000000000000000000602082015250565b6000613f2f603283612cb5565b9150613f3a82613ed3565b604082019050919050565b60006020820190508181036000830152613f5e81613f22565b9050919050565b7f4e487b7100000000000000000000000000000000000000000000000000000000600052601260045260246000fd5b6000613f9f82612d5c565b9150613faa83612d5c565b925082613fba57613fb9613f65565b5b828206905092915050565b7f4552433732313a206d696e7420746f20746865207a65726f2061646472657373600082015250565b6000613ffb602083612cb5565b915061400682613fc5565b602082019050919050565b6000602082019050818103600083015261402a81613fee565b9050919050565b7f4552433732313a20746f6b656e20616c7265616479206d696e74656400000000600082015250565b6000614067601c83612cb5565b915061407282614031565b602082019050919050565b600060208201905081810360008301526140968161405a565b9050919050565b600081519050919050565b600082825260208201905092915050565b60006140c48261409d565b6140ce81856140a8565b93506140de818560208601612cc6565b6140e781612cf0565b840191505092915050565b60006080820190506141076000830187612dbf565b6141146020830186612dbf565b6141216040830185612e95565b818103606083015261413381846140b9565b905095945050505050565b60008151905061414d81612c1b565b92915050565b60006020828403121561416957614168612b48565b5b60006141778482850161413e565b91505092915050565b7f4e487b7100000000000000000000000000000000000000000000000000000000600052603160045260246000fd5b6000819050919050565b6000819050919050565b6141d46141cf826141af565b6141b9565b82525050565b6000819050919050565b6141f56141f082612d5c565b6141da565b82525050565b600061420782856141c3565b60208201915061421782846141e4565b602082019150819050939250505056fea26469706673582212206edf90295a585975e6fb64178be4f5b0b86db61b38685e6e95301c566816b70864736f6c63430008110033",
  "linkReferences": {},
  "deployedLinkReferences": {}
}