{
  "_format": "hh-sol-artifact-1",
  "contractName": "PBDescriptor",
  "sourceName": "contracts/utils/PBDescriptor.sol",
  "abi": [
    {
      "inputs": [
        {
          "internalType": "uint256",
          "name": "tokenId",
          "type": "uint256"
        },
        {
          "internalType": "uint256",
          "name": "seed",
          "type": "uint256"
        }
      ],
      "name": "tokenURI",
      "outputs": [
        {
          "internalType": "string",
          "name": "",
          "type": "string"
        }
      ],
      "stateMutability": "pure",
      "type": "function"
    }
  ],
  "bytecode": "0x608060405234801561001057600080fd5b506131ca806100206000396000f3fe608060405234801561001057600080fd5b506004361061002b5760003560e01c806392cb829d14610030575b600080fd5b61004a60048036038101906100459190612135565b610060565b6040516100579190612205565b60405180910390f35b60606000604051806080016040528064e8d4a51000655af3107a4000866100879190612256565b61009191906122b6565b81526020016305f5e1006402540be400866100ac9190612256565b6100b691906122b6565b8152602001612710620f4240866100cd9190612256565b6100d791906122b6565b81526020016064856100e99190612256565b81525090506000610123655af3107a40008561010591906122b6565b83600060048110610119576101186122e7565b5b602002015161033b565b905060006101696402540be40064e8d4a51000876101419190612256565b61014b91906122b6565b8460016004811061015f5761015e6122e7565b5b60200201516106ed565b905060006101ac620f42406305f5e100886101849190612256565b61018e91906122b6565b856002600481106101a2576101a16122e7565b5b6020020151610b18565b905060006101eb6064612710896101c39190612256565b6101cd91906122b6565b866003600481106101e1576101e06122e7565b5b6020020151610eca565b905060006101f886611098565b9050600085600001518560000151856000015185600001516040518060400160405280600681526020017f3c2f7376673e000000000000000000000000000000000000000000000000000081525060405160200161025a9594939291906125fe565b6040516020818303038152906040529050600061027682611286565b9050600060405180606001604052806033815260200161312260339139905061030b6102a18d6113fe565b82848b602001518c60400151602001518c602001518d60400151602001518d602001518e60400151602001518e602001518f60400151602001518f6040516020016102f79c9b9a99989796959493929190612bfe565b604051602081830303815290604052611286565b60405160200161031b9190612e24565b604051602081830303815290604052995050505050505050505092915050565b6103436120b9565b600061034e8361155e565b9050606080600a86036103cc576040518060400160405280600481526020017f285c285c0000000000000000000000000000000000000000000000000000000081525091506040518060400160405280600a81526020017f526967687420436f6d620000000000000000000000000000000000000000000081525090505b600b8603610445576040518060400160405280600481526020017f2f292f290000000000000000000000000000000000000000000000000000000081525091506040518060400160405280600981526020017f4c65667420436f6d62000000000000000000000000000000000000000000000081525090505b600c86036104be576040518060400160405280600681526020017f28292c2c2829000000000000000000000000000000000000000000000000000081525091506040518060400160405280600981526020017f5369646520436f6d62000000000000000000000000000000000000000000000081525090505b600d8603610537576040518060400160405280600681526020017f28292f2f2829000000000000000000000000000000000000000000000000000081525091506040518060400160405280600481526020017f50756e6b0000000000000000000000000000000000000000000000000000000081525090505b600e86036105b0576040518060400160405280600581526020017f285c2b2f2900000000000000000000000000000000000000000000000000000081525091506040518060400160405280600781526020017f6d65646963616c0000000000000000000000000000000000000000000000000081525090505b600f8603610629576040518060400160405280600581526020017f285c5e2f2900000000000000000000000000000000000000000000000000000081525091506040518060400160405280600881526020017f436f6e652048617400000000000000000000000000000000000000000000000081525090505b601086036106a2576040518060400160405280600581526020017f285c2a2f2900000000000000000000000000000000000000000000000000000081525091506040518060400160405280600481526020017f537461720000000000000000000000000000000000000000000000000000000081525090505b60405180606001604052808460000151846040516020016106c4929190612f2a565b604051602081830303815290604052815260200182815260200184815250935050505092915050565b6106f56120b9565b60006107008361155e565b9050606080600a860361077e576040518060400160405280600781526020017f3d286f2e6f293d0000000000000000000000000000000000000000000000000081525091506040518060400160405280600981526020017f45796573206f70656e000000000000000000000000000000000000000000000081525090505b600b86036107f7576040518060400160405280600781526020017f3d282d2e2d293d0000000000000000000000000000000000000000000000000081525091506040518060400160405280600881526020017f536c656570696e6700000000000000000000000000000000000000000000000081525090505b600c8603610870576040518060400160405280600781526020017f3d286f2e2d293d0000000000000000000000000000000000000000000000000081525091506040518060400160405280600481526020017f57696e6b0000000000000000000000000000000000000000000000000000000081525090505b600d86036108e9576040518060400160405280600781526020017f3d286f2e4f293d0000000000000000000000000000000000000000000000000081525091506040518060400160405280600a81526020017f537573706963696f75730000000000000000000000000000000000000000000081525090505b600e8603610962576040518060400160405280600781526020017f3d285e2e5e293d0000000000000000000000000000000000000000000000000081525091506040518060400160405280600581526020017f536d696c6500000000000000000000000000000000000000000000000000000081525090505b600f86036109db576040518060400160405280600781526020017f3d28782e78293d0000000000000000000000000000000000000000000000000081525091506040518060400160405280600981526020017f446561642046616365000000000000000000000000000000000000000000000081525090505b60108603610a54576040518060400160405280600781526020017f3d5b3d2e3d5d3d0000000000000000000000000000000000000000000000000081525091506040518060400160405280600581526020017f526f626f7400000000000000000000000000000000000000000000000000000081525090505b60108603610acd576040518060400160405280600781526020017f3d28242e24293d0000000000000000000000000000000000000000000000000081525091506040518060400160405280600e81526020017f4d6f6e65792d6f7269656e74656400000000000000000000000000000000000081525090505b6040518060600160405280846000015184604051602001610aef929190612fbb565b604051602081830303815290604052815260200182815260200184815250935050505092915050565b610b206120b9565b6000610b2b8361155e565b9050606080600a8603610ba9576040518060400160405280600781526020017f6f5b203a2d5d6f0000000000000000000000000000000000000000000000000081525091506040518060400160405280600881526020017f466561746865727300000000000000000000000000000000000000000000000081525090505b600b8603610c22576040518060400160405280600781526020017f6f285c242f296f0000000000000000000000000000000000000000000000000081525091506040518060400160405280600481526020017f537761670000000000000000000000000000000000000000000000000000000081525090505b600c8603610c9b576040518060400160405280600781526020017f6f283d7c3d296f0000000000000000000000000000000000000000000000000081525091506040518060400160405280600881526020017f4d757363756c617200000000000000000000000000000000000000000000000081525090505b600d8603610d14576040518060400160405280600781526020017f6f285c2b2f296f0000000000000000000000000000000000000000000000000081525091506040518060400160405280600681526020017f507269657374000000000000000000000000000000000000000000000000000081525090505b600e8603610d8d576040518060400160405280600781526020017f6f28203a7e296f0000000000000000000000000000000000000000000000000081525091506040518060400160405280600581526020017f536869727400000000000000000000000000000000000000000000000000000081525090505b600f8603610e06576040518060400160405280600781526020017f6f285c3a2f296f0000000000000000000000000000000000000000000000000081525091506040518060400160405280600481526020017f537569740000000000000000000000000000000000000000000000000000000081525090505b60108603610e7f576040518060400160405280600781526020017f6f285c7e2f296f0000000000000000000000000000000000000000000000000081525091506040518060400160405280600681526020017f54757865646f000000000000000000000000000000000000000000000000000081525090505b6040518060600160405280846000015184604051602001610ea1929190612fbb565b604051602081830303815290604052815260200182815260200184815250935050505092915050565b610ed26120b9565b6000610edd8361155e565b9050606080600a8603610f5b576040518060400160405280600781526020017f2822292d2822290000000000000000000000000000000000000000000000000081525091506040518060400160405280600881526020017f42696720466f6f7400000000000000000000000000000000000000000000000081525090505b600b8603610fd4576040518060400160405280600581526020017f5f2f2d5c5f00000000000000000000000000000000000000000000000000000081525091506040518060400160405280600881526020017f5374616e64696e6700000000000000000000000000000000000000000000000081525090505b600c860361104d576040518060400160405280600481526020017f2f5e2f5e0000000000000000000000000000000000000000000000000000000081525091506040518060400160405280600a81526020017f48696768204865656c730000000000000000000000000000000000000000000081525090505b604051806060016040528084600001518460405160200161106f929190612fbb565b604051602081830303815290604052815260200182815260200184815250935050505092915050565b6060600080600090505b60048110156111225760005b600481101561110e578481600481106110ca576110c96122e7565b5b60200201518583600481106110e2576110e16122e7565b5b6020020151036110fb5782806110f790613000565b9350505b808061110690613000565b9150506110ae565b50808061111a90613000565b9150506110a2565b5060048103611169576040518060400160405280600181526020017f3400000000000000000000000000000000000000000000000000000000000000815250915050611281565b600681036111af576040518060400160405280600181526020017f3300000000000000000000000000000000000000000000000000000000000000815250915050611281565b60088114806111be5750600a81145b15611201576040518060400160405280600181526020017f3200000000000000000000000000000000000000000000000000000000000000815250915050611281565b60108103611247576040518060400160405280600181526020017f3100000000000000000000000000000000000000000000000000000000000000815250915050611281565b6040518060400160405280600181526020017f30000000000000000000000000000000000000000000000000000000000000008152509150505b919050565b606060008251036112a8576040518060200160405280600081525090506113f9565b600060405180606001604052806040815260200161315560409139905060006003600285516112d79190613048565b6112e191906122b6565b60046112ed919061307c565b905060006020826112fe9190613048565b67ffffffffffffffff811115611317576113166130be565b5b6040519080825280601f01601f1916602001820160405280156113495781602001600182028036833780820191505090505b509050818152600183018586518101602084015b818310156113b8576003830192508251603f8160121c168501518253600182019150603f81600c1c168501518253600182019150603f8160061c168501518253600182019150603f811685015182536001820191505061135d565b6003895106600181146113d257600281146113e2576113ed565b613d3d60f01b60028303526113ed565b603d60f81b60018303525b50505050508093505050505b919050565b606060008203611445576040518060400160405280600181526020017f30000000000000000000000000000000000000000000000000000000000000008152509050611559565b600082905060005b6000821461147757808061146090613000565b915050600a8261147091906122b6565b915061144d565b60008167ffffffffffffffff811115611493576114926130be565b5b6040519080825280601f01601f1916602001820160405280156114c55781602001600182028036833780820191505090505b5090505b60008514611552576001826114de91906130ed565b9150600a856114ed9190612256565b60306114f99190613048565b60f81b81838151811061150f5761150e6122e7565b5b60200101907effffffffffffffffffffffffffffffffffffffffffffffffffffffffffffff1916908160001a905350600a8561154b91906122b6565b94506114c9565b8093505050505b919050565b6115666120e0565b600a82036115f45760405180604001604052806040518060400160405280600781526020017f236536303034390000000000000000000000000000000000000000000000000081525081526020016040518060400160405280600a81526020017f486578206536303034390000000000000000000000000000000000000000000081525081525090506120b4565b600b82036116825760405180604001604052806040518060400160405280600781526020017f233832623662390000000000000000000000000000000000000000000000000081525081526020016040518060400160405280600a81526020017f486578203832623662390000000000000000000000000000000000000000000081525081525090506120b4565b600c82036117105760405180604001604052806040518060400160405280600781526020017f236233643466660000000000000000000000000000000000000000000000000081525081526020016040518060400160405280600a81526020017f486578206233643466660000000000000000000000000000000000000000000081525081525090506120b4565b600d820361179e5760405180604001604052806040518060400160405280600781526020017f233030666666660000000000000000000000000000000000000000000000000081525081526020016040518060400160405280600a81526020017f486578203030666666660000000000000000000000000000000000000000000081525081525090506120b4565b600e820361182c5760405180604001604052806040518060400160405280600781526020017f233062623466660000000000000000000000000000000000000000000000000081525081526020016040518060400160405280600a81526020017f486578203062623466660000000000000000000000000000000000000000000081525081525090506120b4565b600f82036118ba5760405180604001604052806040518060400160405280600781526020017f233138353366660000000000000000000000000000000000000000000000000081525081526020016040518060400160405280600a81526020017f486578203138353366660000000000000000000000000000000000000000000081525081525090506120b4565b601082036119485760405180604001604052806040518060400160405280600781526020017f233335643433350000000000000000000000000000000000000000000000000081525081526020016040518060400160405280600a81526020017f486578203335643433350000000000000000000000000000000000000000000081525081525090506120b4565b601182036119d65760405180604001604052806040518060400160405280600781526020017f233631666637350000000000000000000000000000000000000000000000000081525081526020016040518060400160405280600a81526020017f486578203631666637350000000000000000000000000000000000000000000081525081525090506120b4565b60128203611a645760405180604001604052806040518060400160405280600781526020017f233030626661300000000000000000000000000000000000000000000000000081525081526020016040518060400160405280600a81526020017f486578203030626661300000000000000000000000000000000000000000000081525081525090506120b4565b60138203611af25760405180604001604052806040518060400160405280600781526020017f236666613330300000000000000000000000000000000000000000000000000081525081526020016040518060400160405280600a81526020017f486578206666613330300000000000000000000000000000000000000000000081525081525090506120b4565b60148203611b805760405180604001604052806040518060400160405280600781526020017f236664376636660000000000000000000000000000000000000000000000000081525081526020016040518060400160405280600a81526020017f486578206664376636660000000000000000000000000000000000000000000081525081525090506120b4565b60158203611c0e5760405180604001604052806040518060400160405280600781526020017f236430663430300000000000000000000000000000000000000000000000000081525081526020016040518060400160405280600a81526020017f486578206430663430300000000000000000000000000000000000000000000081525081525090506120b4565b60168203611c9c5760405180604001604052806040518060400160405280600781526020017f233962313966350000000000000000000000000000000000000000000000000081525081526020016040518060400160405280600a81526020017f486578203962313966350000000000000000000000000000000000000000000081525081525090506120b4565b60178203611d2a5760405180604001604052806040518060400160405280600781526020017f236463306162340000000000000000000000000000000000000000000000000081525081526020016040518060400160405280600a81526020017f486578206463306162340000000000000000000000000000000000000000000081525081525090506120b4565b60188203611db85760405180604001604052806040518060400160405280600781526020017f236634366139620000000000000000000000000000000000000000000000000081525081526020016040518060400160405280600a81526020017f486578206634366139620000000000000000000000000000000000000000000081525081525090506120b4565b60198203611e465760405180604001604052806040518060400160405280600781526020017f236264376562650000000000000000000000000000000000000000000000000081525081526020016040518060400160405280600a81526020017f486578206264376562650000000000000000000000000000000000000000000081525081525090506120b4565b601a8203611ed45760405180604001604052806040518060400160405280600781526020017f236664434565350000000000000000000000000000000000000000000000000081525081526020016040518060400160405280600a81526020017f486578206664434565350000000000000000000000000000000000000000000081525081525090506120b4565b601b8203611f625760405180604001604052806040518060400160405280600781526020017f234643453734430000000000000000000000000000000000000000000000000081525081526020016040518060400160405280600a81526020017f486578204643453734430000000000000000000000000000000000000000000081525081525090506120b4565b601c8203611ff05760405180604001604052806040518060400160405280600781526020017f236565656565650000000000000000000000000000000000000000000000000081525081526020016040518060400160405280600a81526020017f486578206565656565650000000000000000000000000000000000000000000081525081525090506120b4565b601d820361207e5760405180604001604052806040518060400160405280600781526020017f233766373636640000000000000000000000000000000000000000000000000081525081526020016040518060400160405280600a81526020017f486578203766373636640000000000000000000000000000000000000000000081525081525090506120b4565b60405180604001604052806040518060200160405280600081525081526020016040518060200160405280600081525081525090505b919050565b604051806060016040528060608152602001606081526020016120da6120e0565b81525090565b604051806040016040528060608152602001606081525090565b600080fd5b6000819050919050565b612112816120ff565b811461211d57600080fd5b50565b60008135905061212f81612109565b92915050565b6000806040838503121561214c5761214b6120fa565b5b600061215a85828601612120565b925050602061216b85828601612120565b9150509250929050565b600081519050919050565b600082825260208201905092915050565b60005b838110156121af578082015181840152602081019050612194565b60008484015250505050565b6000601f19601f8301169050919050565b60006121d782612175565b6121e18185612180565b93506121f1818560208601612191565b6121fa816121bb565b840191505092915050565b6000602082019050818103600083015261221f81846121cc565b905092915050565b7f4e487b7100000000000000000000000000000000000000000000000000000000600052601260045260246000fd5b6000612261826120ff565b915061226c836120ff565b92508261227c5761227b612227565b5b828206905092915050565b7f4e487b7100000000000000000000000000000000000000000000000000000000600052601160045260246000fd5b60006122c1826120ff565b91506122cc836120ff565b9250826122dc576122db612227565b5b828204905092915050565b7f4e487b7100000000000000000000000000000000000000000000000000000000600052603260045260246000fd5b600081905092915050565b7f3c7376672077696474683d2235313222206865696768743d223531322220766960008201527f6577426f783d2230203020353132203531322220786d6c6e733d22687474703a60208201527f2f2f7777772e77332e6f72672f323030302f737667223e000000000000000000604082015250565b60006123a3605783612316565b91506123ae82612321565b605782019050919050565b7f3c726563742077696474683d223130302522206865696768743d22313030252260008201527f2066696c6c3d2223323533313464222f3e000000000000000000000000000000602082015250565b6000612415603183612316565b9150612420826123b9565b603182019050919050565b7f3c7465787420783d223237302220793d223136352220666f6e742d66616d696c60008201527f793d22417269616c2c6d6f6e6f73706163652220666f6e742d7765696768743d60208201527f223930302220666f6e742d73697a653d2236352220746578742d616e63686f7260408201527f3d226d6964646c6522206c65747465722d73706163696e673d223130223e0000606082015250565b60006124d3607e83612316565b91506124de8261242b565b607e82019050919050565b7f3c616e696d617465206174747269627574654e616d653d226479222076616c7560008201527f65733d2231303b303b303a3022206475723d22302e347322207265706561744360208201527f6f756e743d22696e646566696e69746522202f3e000000000000000000000000604082015250565b600061256b605483612316565b9150612576826124e9565b605482019050919050565b600061258c82612175565b6125968185612316565b93506125a6818560208601612191565b80840191505092915050565b7f3c2f746578743e00000000000000000000000000000000000000000000000000600082015250565b60006125e8600783612316565b91506125f3826125b2565b600782019050919050565b600061260982612396565b915061261482612408565b915061261f826124c6565b915061262a8261255e565b91506126368288612581565b91506126428287612581565b915061264e8286612581565b915061265a8285612581565b9150612665826125db565b91506126718284612581565b91508190509695505050505050565b7f7b00000000000000000000000000000000000000000000000000000000000000600082015250565b60006126b6600183612316565b91506126c182612680565b600182019050919050565b7f226e616d65223a2250696b612023000000000000000000000000000000000000600082015250565b6000612702600e83612316565b915061270d826126cc565b600e82019050919050565b7f222c000000000000000000000000000000000000000000000000000000000000600082015250565b600061274e600283612316565b915061275982612718565b600282019050919050565b7f226465736372697074696f6e223a220000000000000000000000000000000000600082015250565b600061279a600f83612316565b91506127a582612764565b600f82019050919050565b7f22696d616765223a202200000000000000000000000000000000000000000000600082015250565b60006127e6600a83612316565b91506127f1826127b0565b600a82019050919050565b7f646174613a696d6167652f7376672b786d6c3b6261736536342c000000000000600082015250565b6000612832601a83612316565b915061283d826127fc565b601a82019050919050565b7f2261747472696275746573223a205b7b2274726169745f74797065223a20224860008201527f656164222c202276616c7565223a202200000000000000000000000000000000602082015250565b60006128a4603083612316565b91506128af82612848565b603082019050919050565b7f2028000000000000000000000000000000000000000000000000000000000000600082015250565b60006128f0600283612316565b91506128fb826128ba565b600282019050919050565b7f2900000000000000000000000000000000000000000000000000000000000000600082015250565b600061293c600183612316565b915061294782612906565b600182019050919050565b7f227d2c0000000000000000000000000000000000000000000000000000000000600082015250565b6000612988600383612316565b915061299382612952565b600382019050919050565b7f7b2274726169745f74797065223a202246616365222c202276616c7565223a2060008201527f2200000000000000000000000000000000000000000000000000000000000000602082015250565b60006129fa602183612316565b9150612a058261299e565b602182019050919050565b7f7b2274726169745f74797065223a2022426f6479222c202276616c7565223a2060008201527f2200000000000000000000000000000000000000000000000000000000000000602082015250565b6000612a6c602183612316565b9150612a7782612a10565b602182019050919050565b7f7b2274726169745f74797065223a2022466f6f74222c202276616c7565223a2060008201527f2200000000000000000000000000000000000000000000000000000000000000602082015250565b6000612ade602183612316565b9150612ae982612a82565b602182019050919050565b7f7b2274726169745f74797065223a2022436f6c6f7273222c202276616c75652260008201527f3a20000000000000000000000000000000000000000000000000000000000000602082015250565b6000612b50602283612316565b9150612b5b82612af4565b602282019050919050565b7f7d00000000000000000000000000000000000000000000000000000000000000600082015250565b6000612b9c600183612316565b9150612ba782612b66565b600182019050919050565b7f5d00000000000000000000000000000000000000000000000000000000000000600082015250565b6000612be8600183612316565b9150612bf382612bb2565b600182019050919050565b6000612c09826126a9565b9150612c14826126f5565b9150612c20828f612581565b9150612c2b82612741565b9150612c368261278d565b9150612c42828e612581565b9150612c4d82612741565b9150612c58826127d9565b9150612c6382612825565b9150612c6f828d612581565b9150612c7a82612741565b9150612c8582612897565b9150612c91828c612581565b9150612c9c826128e3565b9150612ca8828b612581565b9150612cb38261292f565b9150612cbe8261297b565b9150612cc9826129ed565b9150612cd5828a612581565b9150612ce0826128e3565b9150612cec8289612581565b9150612cf78261292f565b9150612d028261297b565b9150612d0d82612a5f565b9150612d198288612581565b9150612d24826128e3565b9150612d308287612581565b9150612d3b8261292f565b9150612d468261297b565b9150612d5182612ad1565b9150612d5d8286612581565b9150612d68826128e3565b9150612d748285612581565b9150612d7f8261292f565b9150612d8a8261297b565b9150612d9582612b43565b9150612da18284612581565b9150612dac82612b8f565b9150612db782612bdb565b9150612dc282612b8f565b91508190509d9c50505050505050505050505050565b7f646174613a6170706c69636174696f6e2f6a736f6e3b6261736536342c000000600082015250565b6000612e0e601d83612316565b9150612e1982612dd8565b601d82019050919050565b6000612e2f82612e01565b9150612e3b8284612581565b915081905092915050565b7f3c747370616e2066696c6c3d2200000000000000000000000000000000000000600082015250565b6000612e7c600d83612316565b9150612e8782612e46565b600d82019050919050565b7f223e000000000000000000000000000000000000000000000000000000000000600082015250565b6000612ec8600283612316565b9150612ed382612e92565b600282019050919050565b7f3c2f747370616e3e000000000000000000000000000000000000000000000000600082015250565b6000612f14600883612316565b9150612f1f82612ede565b600882019050919050565b6000612f3582612e6f565b9150612f418285612581565b9150612f4c82612ebb565b9150612f588284612581565b9150612f6382612f07565b91508190509392505050565b7f3c747370616e2064793d2236352220783d22323730222066696c6c3d22000000600082015250565b6000612fa5601d83612316565b9150612fb082612f6f565b601d82019050919050565b6000612fc682612f98565b9150612fd28285612581565b9150612fdd82612ebb565b9150612fe98284612581565b9150612ff482612f07565b91508190509392505050565b600061300b826120ff565b91507fffffffffffffffffffffffffffffffffffffffffffffffffffffffffffffffff820361303d5761303c612287565b5b600182019050919050565b6000613053826120ff565b915061305e836120ff565b925082820190508082111561307657613075612287565b5b92915050565b6000613087826120ff565b9150613092836120ff565b92508282026130a0816120ff565b915082820484148315176130b7576130b6612287565b5b5092915050565b7f4e487b7100000000000000000000000000000000000000000000000000000000600052604160045260246000fd5b60006130f8826120ff565b9150613103836120ff565b925082820390508181111561311b5761311a612287565b5b9291505056fe50696b6120426f756e6368696e67206669727374206e667420666f72207669727475616c206d696e696e672073797374656d2e4142434445464748494a4b4c4d4e4f505152535455565758595a6162636465666768696a6b6c6d6e6f707172737475767778797a303132333435363738392b2fa2646970667358221220c6f5ea9126dd5ac72372622ada6a11b44bb488f30e2ec57d0185e8712c8be4b064736f6c63430008110033",
  "linkReferences": {},
  "deployedLinkReferences": {}
}