{
  "_format": "hh-sol-artifact-1",
  "contractName": "PikaBounchingCoin",
  "sourceName": "contracts/ERC20/PikaBounchingCoin.sol",
  "abi": [
    {
      "inputs": [],
      "stateMutability": "nonpayable",
      "type": "constructor"
    },
    {
      "inputs": [],
      "name": "PikaBounchingCoin__OnlyControllersCanMint",
      "type": "error"
    },
    {
      "anonymous": false,
      "inputs": [
        {
          "indexed": true,
          "internalType": "address",
          "name": "owner",
          "type": "address"
        },
        {
          "indexed": true,
          "internalType": "address",
          "name": "spender",
          "type": "address"
        },
        {
          "indexed": false,
          "internalType": "uint256",
          "name": "value",
          "type": "uint256"
        }
      ],
      "name": "Approval",
      "type": "event"
    },
    {
      "anonymous": false,
      "inputs": [
        {
          "indexed": true,
          "internalType": "address",
          "name": "previousOwner",
          "type": "address"
        },
        {
          "indexed": true,
          "internalType": "address",
          "name": "newOwner",
          "type": "address"
        }
      ],
      "name": "OwnershipTransferred",
      "type": "event"
    },
    {
      "anonymous": false,
      "inputs": [
        {
          "indexed": true,
          "internalType": "address",
          "name": "from",
          "type": "address"
        },
        {
          "indexed": true,
          "internalType": "address",
          "name": "to",
          "type": "address"
        },
        {
          "indexed": false,
          "internalType": "uint256",
          "name": "value",
          "type": "uint256"
        }
      ],
      "name": "Transfer",
      "type": "event"
    },
    {
      "inputs": [
        {
          "internalType": "uint256",
          "name": "",
          "type": "uint256"
        }
      ],
      "name": "INITIAL_SUPPLY_ALLOCATION",
      "outputs": [
        {
          "internalType": "uint256",
          "name": "",
          "type": "uint256"
        }
      ],
      "stateMutability": "view",
      "type": "function"
    },
    {
      "inputs": [
        {
          "internalType": "uint256",
          "name": "",
          "type": "uint256"
        }
      ],
      "name": "INITIAL_SUPPLY_RECEIVER",
      "outputs": [
        {
          "internalType": "address",
          "name": "",
          "type": "address"
        }
      ],
      "stateMutability": "view",
      "type": "function"
    },
    {
      "inputs": [
        {
          "internalType": "address",
          "name": "owner",
          "type": "address"
        },
        {
          "internalType": "address",
          "name": "spender",
          "type": "address"
        }
      ],
      "name": "allowance",
      "outputs": [
        {
          "internalType": "uint256",
          "name": "",
          "type": "uint256"
        }
      ],
      "stateMutability": "view",
      "type": "function"
    },
    {
      "inputs": [
        {
          "internalType": "address",
          "name": "spender",
          "type": "address"
        },
        {
          "internalType": "uint256",
          "name": "amount",
          "type": "uint256"
        }
      ],
      "name": "approve",
      "outputs": [
        {
          "internalType": "bool",
          "name": "",
          "type": "bool"
        }
      ],
      "stateMutability": "nonpayable",
      "type": "function"
    },
    {
      "inputs": [
        {
          "internalType": "address",
          "name": "account",
          "type": "address"
        }
      ],
      "name": "balanceOf",
      "outputs": [
        {
          "internalType": "uint256",
          "name": "",
          "type": "uint256"
        }
      ],
      "stateMutability": "view",
      "type": "function"
    },
    {
      "inputs": [
        {
          "internalType": "uint256",
          "name": "amount",
          "type": "uint256"
        }
      ],
      "name": "burn",
      "outputs": [],
      "stateMutability": "nonpayable",
      "type": "function"
    },
    {
      "inputs": [
        {
          "internalType": "address",
          "name": "account",
          "type": "address"
        },
        {
          "internalType": "uint256",
          "name": "amount",
          "type": "uint256"
        }
      ],
      "name": "burnFrom",
      "outputs": [],
      "stateMutability": "nonpayable",
      "type": "function"
    },
    {
      "inputs": [],
      "name": "decimals",
      "outputs": [
        {
          "internalType": "uint8",
          "name": "",
          "type": "uint8"
        }
      ],
      "stateMutability": "view",
      "type": "function"
    },
    {
      "inputs": [
        {
          "internalType": "address",
          "name": "spender",
          "type": "address"
        },
        {
          "internalType": "uint256",
          "name": "subtractedValue",
          "type": "uint256"
        }
      ],
      "name": "decreaseAllowance",
      "outputs": [
        {
          "internalType": "bool",
          "name": "",
          "type": "bool"
        }
      ],
      "stateMutability": "nonpayable",
      "type": "function"
    },
    {
      "inputs": [
        {
          "internalType": "address",
          "name": "spender",
          "type": "address"
        },
        {
          "internalType": "uint256",
          "name": "addedValue",
          "type": "uint256"
        }
      ],
      "name": "increaseAllowance",
      "outputs": [
        {
          "internalType": "bool",
          "name": "",
          "type": "bool"
        }
      ],
      "stateMutability": "nonpayable",
      "type": "function"
    },
    {
      "inputs": [],
      "name": "initialMinted",
      "outputs": [
        {
          "internalType": "bool",
          "name": "",
          "type": "bool"
        }
      ],
      "stateMutability": "view",
      "type": "function"
    },
    {
      "inputs": [],
      "name": "initialSupply",
      "outputs": [
        {
          "internalType": "uint256",
          "name": "",
          "type": "uint256"
        }
      ],
      "stateMutability": "view",
      "type": "function"
    },
    {
      "inputs": [
        {
          "internalType": "address",
          "name": "to",
          "type": "address"
        },
        {
          "internalType": "uint256",
          "name": "amount",
          "type": "uint256"
        }
      ],
      "name": "mint",
      "outputs": [],
      "stateMutability": "nonpayable",
      "type": "function"
    },
    {
      "inputs": [],
      "name": "name",
      "outputs": [
        {
          "internalType": "string",
          "name": "",
          "type": "string"
        }
      ],
      "stateMutability": "view",
      "type": "function"
    },
    {
      "inputs": [],
      "name": "owner",
      "outputs": [
        {
          "internalType": "address",
          "name": "",
          "type": "address"
        }
      ],
      "stateMutability": "view",
      "type": "function"
    },
    {
      "inputs": [],
      "name": "renounceOwnership",
      "outputs": [],
      "stateMutability": "nonpayable",
      "type": "function"
    },
    {
      "inputs": [
        {
          "internalType": "address",
          "name": "controller",
          "type": "address"
        },
        {
          "internalType": "bool",
          "name": "_state",
          "type": "bool"
        }
      ],
      "name": "setController",
      "outputs": [],
      "stateMutability": "payable",
      "type": "function"
    },
    {
      "inputs": [],
      "name": "symbol",
      "outputs": [
        {
          "internalType": "string",
          "name": "",
          "type": "string"
        }
      ],
      "stateMutability": "view",
      "type": "function"
    },
    {
      "inputs": [],
      "name": "totalSupply",
      "outputs": [
        {
          "internalType": "uint256",
          "name": "",
          "type": "uint256"
        }
      ],
      "stateMutability": "view",
      "type": "function"
    },
    {
      "inputs": [
        {
          "internalType": "address",
          "name": "to",
          "type": "address"
        },
        {
          "internalType": "uint256",
          "name": "amount",
          "type": "uint256"
        }
      ],
      "name": "transfer",
      "outputs": [
        {
          "internalType": "bool",
          "name": "",
          "type": "bool"
        }
      ],
      "stateMutability": "nonpayable",
      "type": "function"
    },
    {
      "inputs": [
        {
          "internalType": "address",
          "name": "from",
          "type": "address"
        },
        {
          "internalType": "address",
          "name": "to",
          "type": "address"
        },
        {
          "internalType": "uint256",
          "name": "amount",
          "type": "uint256"
        }
      ],
      "name": "transferFrom",
      "outputs": [
        {
          "internalType": "bool",
          "name": "",
          "type": "bool"
        }
      ],
      "stateMutability": "nonpayable",
      "type": "function"
    },
    {
      "inputs": [
        {
          "internalType": "address",
          "name": "newOwner",
          "type": "address"
        }
      ],
      "name": "transferOwnership",
      "outputs": [],
      "stateMutability": "nonpayable",
      "type": "function"
    }
  ],
  "bytecode": "0x60806040526a115eec47f6cf7e35000000600955604051806080016040528073ee66bda0bc2c9ab72127ce90944b4048775f5fd973ffffffffffffffffffffffffffffffffffffffff1673ffffffffffffffffffffffffffffffffffffffff16815260200173fff14ebda7dc570ecf70ac26f45543b0eb39eeb373ffffffffffffffffffffffffffffffffffffffff1673ffffffffffffffffffffffffffffffffffffffff16815260200173ee5a230528b70c6caa1cd17fa54aea481241deaa73ffffffffffffffffffffffffffffffffffffffff1673ffffffffffffffffffffffffffffffffffffffff16815260200173a977bb7de34298126092738db59177541ab6080d73ffffffffffffffffffffffffffffffffffffffff1673ffffffffffffffffffffffffffffffffffffffff16815250600a90600462000146929190620005df565b5060405180608001604052806028815260200160058152602001601481526020016023815250600b9060046200017e9291906200066e565b503480156200018c57600080fd5b506040518060400160405280601281526020017f50696b6120426f756e63696e6720436f696e00000000000000000000000000008152506040518060400160405280600381526020017f504243000000000000000000000000000000000000000000000000000000000081525081600390816200020a919062000959565b5080600490816200021c919062000959565b5050506200023f620002336200025560201b60201c565b6200025d60201b60201c565b6200024f6200032360201b60201c565b62000cfb565b600033905090565b6000600560009054906101000a900473ffffffffffffffffffffffffffffffffffffffff16905081600560006101000a81548173ffffffffffffffffffffffffffffffffffffffff021916908373ffffffffffffffffffffffffffffffffffffffff1602179055508173ffffffffffffffffffffffffffffffffffffffff168173ffffffffffffffffffffffffffffffffffffffff167f8be0079c531659141344cd1fd0a4f28419497f9722a3daafe3b4186f6b6457e060405160405180910390a35050565b6000806000600a805490509050600860009054906101000a900460ff161562000383576040517f08c379a00000000000000000000000000000000000000000000000000000000081526004016200037a9062000aa1565b60405180910390fd5b6001600860006101000a81548160ff02191690831515021790555060005b818110156200045757600a8181548110620003c157620003c062000ac3565b5b9060005260206000200160009054906101000a900473ffffffffffffffffffffffffffffffffffffffff1692506064600954600b83815481106200040a576200040962000ac3565b5b906000526020600020015462000421919062000b21565b6200042d919062000b9b565b93506200044183856200045d60201b60201c565b80806200044e9062000bd3565b915050620003a1565b50505050565b600073ffffffffffffffffffffffffffffffffffffffff168273ffffffffffffffffffffffffffffffffffffffff1603620004cf576040517f08c379a0000000000000000000000000000000000000000000000000000000008152600401620004c69062000c70565b60405180910390fd5b620004e360008383620005d560201b60201c565b8060026000828254620004f7919062000c92565b92505081905550806000808473ffffffffffffffffffffffffffffffffffffffff1673ffffffffffffffffffffffffffffffffffffffff16815260200190815260200160002060008282546200054e919062000c92565b925050819055508173ffffffffffffffffffffffffffffffffffffffff16600073ffffffffffffffffffffffffffffffffffffffff167fddf252ad1be2c89b69c2b068fc378daa952ba7f163c4a11628f55a4df523b3ef83604051620005b5919062000cde565b60405180910390a3620005d160008383620005da60201b60201c565b5050565b505050565b505050565b8280548282559060005260206000209081019282156200065b579160200282015b828111156200065a5782518260006101000a81548173ffffffffffffffffffffffffffffffffffffffff021916908373ffffffffffffffffffffffffffffffffffffffff1602179055509160200191906001019062000600565b5b5090506200066a9190620006c0565b5090565b828054828255906000526020600020908101928215620006ad579160200282015b82811115620006ac5782518255916020019190600101906200068f565b5b509050620006bc9190620006c0565b5090565b5b80821115620006db576000816000905550600101620006c1565b5090565b600081519050919050565b7f4e487b7100000000000000000000000000000000000000000000000000000000600052604160045260246000fd5b7f4e487b7100000000000000000000000000000000000000000000000000000000600052602260045260246000fd5b600060028204905060018216806200076157607f821691505b60208210810362000777576200077662000719565b5b50919050565b60008190508160005260206000209050919050565b60006020601f8301049050919050565b600082821b905092915050565b600060088302620007e17fffffffffffffffffffffffffffffffffffffffffffffffffffffffffffffffff82620007a2565b620007ed8683620007a2565b95508019841693508086168417925050509392505050565b6000819050919050565b6000819050919050565b60006200083a620008346200082e8462000805565b6200080f565b62000805565b9050919050565b6000819050919050565b620008568362000819565b6200086e620008658262000841565b848454620007af565b825550505050565b600090565b6200088562000876565b620008928184846200084b565b505050565b5b81811015620008ba57620008ae6000826200087b565b60018101905062000898565b5050565b601f8211156200090957620008d3816200077d565b620008de8462000792565b81016020851015620008ee578190505b62000906620008fd8562000792565b83018262000897565b50505b505050565b600082821c905092915050565b60006200092e600019846008026200090e565b1980831691505092915050565b60006200094983836200091b565b9150826002028217905092915050565b6200096482620006df565b67ffffffffffffffff81111562000980576200097f620006ea565b5b6200098c825462000748565b62000999828285620008be565b600060209050601f831160018114620009d15760008415620009bc578287015190505b620009c885826200093b565b86555062000a38565b601f198416620009e1866200077d565b60005b8281101562000a0b57848901518255600182019150602085019450602081019050620009e4565b8683101562000a2b578489015162000a27601f8916826200091b565b8355505b6001600288020188555050505b505050505050565b600082825260208201905092915050565b7f496e697469616c20737570706c7920686173206d696e7465642e000000000000600082015250565b600062000a89601a8362000a40565b915062000a968262000a51565b602082019050919050565b6000602082019050818103600083015262000abc8162000a7a565b9050919050565b7f4e487b7100000000000000000000000000000000000000000000000000000000600052603260045260246000fd5b7f4e487b7100000000000000000000000000000000000000000000000000000000600052601160045260246000fd5b600062000b2e8262000805565b915062000b3b8362000805565b925082820262000b4b8162000805565b9150828204841483151762000b655762000b6462000af2565b5b5092915050565b7f4e487b7100000000000000000000000000000000000000000000000000000000600052601260045260246000fd5b600062000ba88262000805565b915062000bb58362000805565b92508262000bc85762000bc762000b6c565b5b828204905092915050565b600062000be08262000805565b91507fffffffffffffffffffffffffffffffffffffffffffffffffffffffffffffffff820362000c155762000c1462000af2565b5b600182019050919050565b7f45524332303a206d696e7420746f20746865207a65726f206164647265737300600082015250565b600062000c58601f8362000a40565b915062000c658262000c20565b602082019050919050565b6000602082019050818103600083015262000c8b8162000c49565b9050919050565b600062000c9f8262000805565b915062000cac8362000805565b925082820190508082111562000cc75762000cc662000af2565b5b92915050565b62000cd88162000805565b82525050565b600060208201905062000cf5600083018462000ccd565b92915050565b611fc98062000d0b6000396000f3fe6080604052600436106101355760003560e01c806379cc6790116100ab578063a9059cbb1161006f578063a9059cbb1461043c578063bd6271da14610479578063ca1c4de9146104b6578063dd62ed3e146104e1578063e0dba60f1461051e578063f2fde38b1461053a57610135565b806379cc6790146103435780638da5cb5b1461036c57806395d89b4114610397578063a457c2d7146103c2578063a6b11c60146103ff57610135565b8063378dc3dc116100fd578063378dc3dc14610235578063395093511461026057806340c10f191461029d57806342966c68146102c657806370a08231146102ef578063715018a61461032c57610135565b806306fdde031461013a578063095ea7b31461016557806318160ddd146101a257806323b872dd146101cd578063313ce5671461020a575b600080fd5b34801561014657600080fd5b5061014f610563565b60405161015c9190611521565b60405180910390f35b34801561017157600080fd5b5061018c600480360381019061018791906115dc565b6105f5565b6040516101999190611637565b60405180910390f35b3480156101ae57600080fd5b506101b7610618565b6040516101c49190611661565b60405180910390f35b3480156101d957600080fd5b506101f460048036038101906101ef919061167c565b610622565b6040516102019190611637565b60405180910390f35b34801561021657600080fd5b5061021f610651565b60405161022c91906116eb565b60405180910390f35b34801561024157600080fd5b5061024a61065a565b6040516102579190611661565b60405180910390f35b34801561026c57600080fd5b50610287600480360381019061028291906115dc565b610660565b6040516102949190611637565b60405180910390f35b3480156102a957600080fd5b506102c460048036038101906102bf91906115dc565b610697565b005b3480156102d257600080fd5b506102ed60048036038101906102e89190611706565b610728565b005b3480156102fb57600080fd5b5061031660048036038101906103119190611733565b61073c565b6040516103239190611661565b60405180910390f35b34801561033857600080fd5b50610341610784565b005b34801561034f57600080fd5b5061036a600480360381019061036591906115dc565b610798565b005b34801561037857600080fd5b506103816107f9565b60405161038e919061176f565b60405180910390f35b3480156103a357600080fd5b506103ac610823565b6040516103b99190611521565b60405180910390f35b3480156103ce57600080fd5b506103e960048036038101906103e491906115dc565b6108b5565b6040516103f69190611637565b60405180910390f35b34801561040b57600080fd5b5061042660048036038101906104219190611706565b61092c565b604051610433919061176f565b60405180910390f35b34801561044857600080fd5b50610463600480360381019061045e91906115dc565b61096b565b6040516104709190611637565b60405180910390f35b34801561048557600080fd5b506104a0600480360381019061049b9190611706565b61098e565b6040516104ad9190611661565b60405180910390f35b3480156104c257600080fd5b506104cb6109b2565b6040516104d89190611637565b60405180910390f35b3480156104ed57600080fd5b506105086004803603810190610503919061178a565b6109c5565b6040516105159190611661565b60405180910390f35b610538600480360381019061053391906117f6565b610a4c565b005b34801561054657600080fd5b50610561600480360381019061055c9190611733565b610aaf565b005b60606003805461057290611865565b80601f016020809104026020016040519081016040528092919081815260200182805461059e90611865565b80156105eb5780601f106105c0576101008083540402835291602001916105eb565b820191906000526020600020905b8154815290600101906020018083116105ce57829003601f168201915b5050505050905090565b600080610600610b32565b905061060d818585610b3a565b600191505092915050565b6000600254905090565b60008061062d610b32565b905061063a858285610d03565b610645858585610d8f565b60019150509392505050565b60006012905090565b60095481565b60008061066b610b32565b905061068c81858561067d85896109c5565b61068791906118c5565b610b3a565b600191505092915050565b600660003373ffffffffffffffffffffffffffffffffffffffff1673ffffffffffffffffffffffffffffffffffffffff16815260200190815260200160002060009054906101000a900460ff1661071a576040517fadf1796500000000000000000000000000000000000000000000000000000000815260040160405180910390fd5b610724828261100e565b5050565b610739610733610b32565b8261116d565b50565b60008060008373ffffffffffffffffffffffffffffffffffffffff1673ffffffffffffffffffffffffffffffffffffffff168152602001908152602001600020549050919050565b61078c611343565b61079660006113c1565b565b600660003373ffffffffffffffffffffffffffffffffffffffff1673ffffffffffffffffffffffffffffffffffffffff16815260200190815260200160002060009054906101000a900460ff16156107f5576107f4828261116d565b5b5050565b6000600560009054906101000a900473ffffffffffffffffffffffffffffffffffffffff16905090565b60606004805461083290611865565b80601f016020809104026020016040519081016040528092919081815260200182805461085e90611865565b80156108ab5780601f10610880576101008083540402835291602001916108ab565b820191906000526020600020905b81548152906001019060200180831161088e57829003601f168201915b5050505050905090565b6000806108c0610b32565b905060006108ce82866109c5565b905083811015610913576040517f08c379a000000000000000000000000000000000000000000000000000000000815260040161090a9061196b565b60405180910390fd5b6109208286868403610b3a565b60019250505092915050565b600a818154811061093c57600080fd5b906000526020600020016000915054906101000a900473ffffffffffffffffffffffffffffffffffffffff1681565b600080610976610b32565b9050610983818585610d8f565b600191505092915050565b600b818154811061099e57600080fd5b906000526020600020016000915090505481565b600860009054906101000a900460ff1681565b6000600160008473ffffffffffffffffffffffffffffffffffffffff1673ffffffffffffffffffffffffffffffffffffffff16815260200190815260200160002060008373ffffffffffffffffffffffffffffffffffffffff1673ffffffffffffffffffffffffffffffffffffffff16815260200190815260200160002054905092915050565b610a54611343565b80600660008473ffffffffffffffffffffffffffffffffffffffff1673ffffffffffffffffffffffffffffffffffffffff16815260200190815260200160002060006101000a81548160ff0219169083151502179055505050565b610ab7611343565b600073ffffffffffffffffffffffffffffffffffffffff168173ffffffffffffffffffffffffffffffffffffffff1603610b26576040517f08c379a0000000000000000000000000000000000000000000000000000000008152600401610b1d906119fd565b60405180910390fd5b610b2f816113c1565b50565b600033905090565b600073ffffffffffffffffffffffffffffffffffffffff168373ffffffffffffffffffffffffffffffffffffffff1603610ba9576040517f08c379a0000000000000000000000000000000000000000000000000000000008152600401610ba090611a8f565b60405180910390fd5b600073ffffffffffffffffffffffffffffffffffffffff168273ffffffffffffffffffffffffffffffffffffffff1603610c18576040517f08c379a0000000000000000000000000000000000000000000000000000000008152600401610c0f90611b21565b60405180910390fd5b80600160008573ffffffffffffffffffffffffffffffffffffffff1673ffffffffffffffffffffffffffffffffffffffff16815260200190815260200160002060008473ffffffffffffffffffffffffffffffffffffffff1673ffffffffffffffffffffffffffffffffffffffff168152602001908152602001600020819055508173ffffffffffffffffffffffffffffffffffffffff168373ffffffffffffffffffffffffffffffffffffffff167f8c5be1e5ebec7d5bd14f71427d1e84f3dd0314c0f7b2291e5b200ac8c7c3b92583604051610cf69190611661565b60405180910390a3505050565b6000610d0f84846109c5565b90507fffffffffffffffffffffffffffffffffffffffffffffffffffffffffffffffff8114610d895781811015610d7b576040517f08c379a0000000000000000000000000000000000000000000000000000000008152600401610d7290611b8d565b60405180910390fd5b610d888484848403610b3a565b5b50505050565b600073ffffffffffffffffffffffffffffffffffffffff168373ffffffffffffffffffffffffffffffffffffffff1603610dfe576040517f08c379a0000000000000000000000000000000000000000000000000000000008152600401610df590611c1f565b60405180910390fd5b600073ffffffffffffffffffffffffffffffffffffffff168273ffffffffffffffffffffffffffffffffffffffff1603610e6d576040517f08c379a0000000000000000000000000000000000000000000000000000000008152600401610e6490611cb1565b60405180910390fd5b610e78838383611487565b60008060008573ffffffffffffffffffffffffffffffffffffffff1673ffffffffffffffffffffffffffffffffffffffff16815260200190815260200160002054905081811015610efe576040517f08c379a0000000000000000000000000000000000000000000000000000000008152600401610ef590611d43565b60405180910390fd5b8181036000808673ffffffffffffffffffffffffffffffffffffffff1673ffffffffffffffffffffffffffffffffffffffff16815260200190815260200160002081905550816000808573ffffffffffffffffffffffffffffffffffffffff1673ffffffffffffffffffffffffffffffffffffffff1681526020019081526020016000206000828254610f9191906118c5565b925050819055508273ffffffffffffffffffffffffffffffffffffffff168473ffffffffffffffffffffffffffffffffffffffff167fddf252ad1be2c89b69c2b068fc378daa952ba7f163c4a11628f55a4df523b3ef84604051610ff59190611661565b60405180910390a361100884848461148c565b50505050565b600073ffffffffffffffffffffffffffffffffffffffff168273ffffffffffffffffffffffffffffffffffffffff160361107d576040517f08c379a000000000000000000000000000000000000000000000000000000000815260040161107490611daf565b60405180910390fd5b61108960008383611487565b806002600082825461109b91906118c5565b92505081905550806000808473ffffffffffffffffffffffffffffffffffffffff1673ffffffffffffffffffffffffffffffffffffffff16815260200190815260200160002060008282546110f091906118c5565b925050819055508173ffffffffffffffffffffffffffffffffffffffff16600073ffffffffffffffffffffffffffffffffffffffff167fddf252ad1be2c89b69c2b068fc378daa952ba7f163c4a11628f55a4df523b3ef836040516111559190611661565b60405180910390a36111696000838361148c565b5050565b600073ffffffffffffffffffffffffffffffffffffffff168273ffffffffffffffffffffffffffffffffffffffff16036111dc576040517f08c379a00000000000000000000000000000000000000000000000000000000081526004016111d390611e41565b60405180910390fd5b6111e882600083611487565b60008060008473ffffffffffffffffffffffffffffffffffffffff1673ffffffffffffffffffffffffffffffffffffffff1681526020019081526020016000205490508181101561126e576040517f08c379a000000000000000000000000000000000000000000000000000000000815260040161126590611ed3565b60405180910390fd5b8181036000808573ffffffffffffffffffffffffffffffffffffffff1673ffffffffffffffffffffffffffffffffffffffff1681526020019081526020016000208190555081600260008282546112c59190611ef3565b92505081905550600073ffffffffffffffffffffffffffffffffffffffff168373ffffffffffffffffffffffffffffffffffffffff167fddf252ad1be2c89b69c2b068fc378daa952ba7f163c4a11628f55a4df523b3ef8460405161132a9190611661565b60405180910390a361133e8360008461148c565b505050565b61134b610b32565b73ffffffffffffffffffffffffffffffffffffffff166113696107f9565b73ffffffffffffffffffffffffffffffffffffffff16146113bf576040517f08c379a00000000000000000000000000000000000000000000000000000000081526004016113b690611f73565b60405180910390fd5b565b6000600560009054906101000a900473ffffffffffffffffffffffffffffffffffffffff16905081600560006101000a81548173ffffffffffffffffffffffffffffffffffffffff021916908373ffffffffffffffffffffffffffffffffffffffff1602179055508173ffffffffffffffffffffffffffffffffffffffff168173ffffffffffffffffffffffffffffffffffffffff167f8be0079c531659141344cd1fd0a4f28419497f9722a3daafe3b4186f6b6457e060405160405180910390a35050565b505050565b505050565b600081519050919050565b600082825260208201905092915050565b60005b838110156114cb5780820151818401526020810190506114b0565b60008484015250505050565b6000601f19601f8301169050919050565b60006114f382611491565b6114fd818561149c565b935061150d8185602086016114ad565b611516816114d7565b840191505092915050565b6000602082019050818103600083015261153b81846114e8565b905092915050565b600080fd5b600073ffffffffffffffffffffffffffffffffffffffff82169050919050565b600061157382611548565b9050919050565b61158381611568565b811461158e57600080fd5b50565b6000813590506115a08161157a565b92915050565b6000819050919050565b6115b9816115a6565b81146115c457600080fd5b50565b6000813590506115d6816115b0565b92915050565b600080604083850312156115f3576115f2611543565b5b600061160185828601611591565b9250506020611612858286016115c7565b9150509250929050565b60008115159050919050565b6116318161161c565b82525050565b600060208201905061164c6000830184611628565b92915050565b61165b816115a6565b82525050565b60006020820190506116766000830184611652565b92915050565b60008060006060848603121561169557611694611543565b5b60006116a386828701611591565b93505060206116b486828701611591565b92505060406116c5868287016115c7565b9150509250925092565b600060ff82169050919050565b6116e5816116cf565b82525050565b600060208201905061170060008301846116dc565b92915050565b60006020828403121561171c5761171b611543565b5b600061172a848285016115c7565b91505092915050565b60006020828403121561174957611748611543565b5b600061175784828501611591565b91505092915050565b61176981611568565b82525050565b60006020820190506117846000830184611760565b92915050565b600080604083850312156117a1576117a0611543565b5b60006117af85828601611591565b92505060206117c085828601611591565b9150509250929050565b6117d38161161c565b81146117de57600080fd5b50565b6000813590506117f0816117ca565b92915050565b6000806040838503121561180d5761180c611543565b5b600061181b85828601611591565b925050602061182c858286016117e1565b9150509250929050565b7f4e487b7100000000000000000000000000000000000000000000000000000000600052602260045260246000fd5b6000600282049050600182168061187d57607f821691505b6020821081036118905761188f611836565b5b50919050565b7f4e487b7100000000000000000000000000000000000000000000000000000000600052601160045260246000fd5b60006118d0826115a6565b91506118db836115a6565b92508282019050808211156118f3576118f2611896565b5b92915050565b7f45524332303a2064656372656173656420616c6c6f77616e63652062656c6f7760008201527f207a65726f000000000000000000000000000000000000000000000000000000602082015250565b600061195560258361149c565b9150611960826118f9565b604082019050919050565b6000602082019050818103600083015261198481611948565b9050919050565b7f4f776e61626c653a206e6577206f776e657220697320746865207a65726f206160008201527f6464726573730000000000000000000000000000000000000000000000000000602082015250565b60006119e760268361149c565b91506119f28261198b565b604082019050919050565b60006020820190508181036000830152611a16816119da565b9050919050565b7f45524332303a20617070726f76652066726f6d20746865207a65726f2061646460008201527f7265737300000000000000000000000000000000000000000000000000000000602082015250565b6000611a7960248361149c565b9150611a8482611a1d565b604082019050919050565b60006020820190508181036000830152611aa881611a6c565b9050919050565b7f45524332303a20617070726f766520746f20746865207a65726f20616464726560008201527f7373000000000000000000000000000000000000000000000000000000000000602082015250565b6000611b0b60228361149c565b9150611b1682611aaf565b604082019050919050565b60006020820190508181036000830152611b3a81611afe565b9050919050565b7f45524332303a20696e73756666696369656e7420616c6c6f77616e6365000000600082015250565b6000611b77601d8361149c565b9150611b8282611b41565b602082019050919050565b60006020820190508181036000830152611ba681611b6a565b9050919050565b7f45524332303a207472616e736665722066726f6d20746865207a65726f20616460008201527f6472657373000000000000000000000000000000000000000000000000000000602082015250565b6000611c0960258361149c565b9150611c1482611bad565b604082019050919050565b60006020820190508181036000830152611c3881611bfc565b9050919050565b7f45524332303a207472616e7366657220746f20746865207a65726f206164647260008201527f6573730000000000000000000000000000000000000000000000000000000000602082015250565b6000611c9b60238361149c565b9150611ca682611c3f565b604082019050919050565b60006020820190508181036000830152611cca81611c8e565b9050919050565b7f45524332303a207472616e7366657220616d6f756e742065786365656473206260008201527f616c616e63650000000000000000000000000000000000000000000000000000602082015250565b6000611d2d60268361149c565b9150611d3882611cd1565b604082019050919050565b60006020820190508181036000830152611d5c81611d20565b9050919050565b7f45524332303a206d696e7420746f20746865207a65726f206164647265737300600082015250565b6000611d99601f8361149c565b9150611da482611d63565b602082019050919050565b60006020820190508181036000830152611dc881611d8c565b9050919050565b7f45524332303a206275726e2066726f6d20746865207a65726f2061646472657360008201527f7300000000000000000000000000000000000000000000000000000000000000602082015250565b6000611e2b60218361149c565b9150611e3682611dcf565b604082019050919050565b60006020820190508181036000830152611e5a81611e1e565b9050919050565b7f45524332303a206275726e20616d6f756e7420657863656564732062616c616e60008201527f6365000000000000000000000000000000000000000000000000000000000000602082015250565b6000611ebd60228361149c565b9150611ec882611e61565b604082019050919050565b60006020820190508181036000830152611eec81611eb0565b9050919050565b6000611efe826115a6565b9150611f09836115a6565b9250828203905081811115611f2157611f20611896565b5b92915050565b7f4f776e61626c653a2063616c6c6572206973206e6f7420746865206f776e6572600082015250565b6000611f5d60208361149c565b9150611f6882611f27565b602082019050919050565b60006020820190508181036000830152611f8c81611f50565b905091905056fea264697066735822122014ad5bdb7ba56ca2da4a16d43b46d1114e64085094a7c53b411a075f674b6cbb64736f6c63430008110033",
  "linkReferences": {},
  "deployedLinkReferences": {}
}