{
  "_format": "hh-sol-artifact-1",
  "contractName": "PikaBounchingStakingVault",
  "sourceName": "contracts/utils/PikaBounchingStakingVault.sol",
  "abi": [
    {
      "inputs": [
        {
          "internalType": "address",
          "name": "_nftAddress",
          "type": "address"
        },
        {
          "internalType": "address",
          "name": "_tokenAddress",
          "type": "address"
        }
      ],
      "stateMutability": "nonpayable",
      "type": "constructor"
    },
    {
      "inputs": [],
      "name": "PikaBounchingVault__ItemAlreadyStaked",
      "type": "error"
    },
    {
      "inputs": [],
      "name": "PikaBounchingVault__NotItemOwner",
      "type": "error"
    },
    {
      "anonymous": false,
      "inputs": [
        {
          "indexed": false,
          "internalType": "address",
          "name": "owner",
          "type": "address"
        },
        {
          "indexed": false,
          "internalType": "uint256",
          "name": "reward",
          "type": "uint256"
        }
      ],
      "name": "Claimed",
      "type": "event"
    },
    {
      "anonymous": false,
      "inputs": [
        {
          "indexed": false,
          "internalType": "uint256",
          "name": "tokenId",
          "type": "uint256"
        },
        {
          "indexed": false,
          "internalType": "address",
          "name": "owner",
          "type": "address"
        },
        {
          "indexed": false,
          "internalType": "uint256",
          "name": "timestamp",
          "type": "uint256"
        }
      ],
      "name": "ItemStaked",
      "type": "event"
    },
    {
      "anonymous": false,
      "inputs": [
        {
          "indexed": false,
          "internalType": "uint256",
          "name": "tokenId",
          "type": "uint256"
        },
        {
          "indexed": false,
          "internalType": "address",
          "name": "owner",
          "type": "address"
        },
        {
          "indexed": false,
          "internalType": "uint256",
          "name": "timestamp",
          "type": "uint256"
        }
      ],
      "name": "ItemUnstaked",
      "type": "event"
    },
    {
      "anonymous": false,
      "inputs": [
        {
          "indexed": true,
          "internalType": "address",
          "name": "previousOwner",
          "type": "address"
        },
        {
          "indexed": true,
          "internalType": "address",
          "name": "newOwner",
          "type": "address"
        }
      ],
      "name": "OwnershipTransferred",
      "type": "event"
    },
    {
      "inputs": [
        {
          "internalType": "address",
          "name": "user",
          "type": "address"
        }
      ],
      "name": "balanceOf",
      "outputs": [
        {
          "internalType": "uint256",
          "name": "nftStakedbalance",
          "type": "uint256"
        }
      ],
      "stateMutability": "view",
      "type": "function"
    },
    {
      "inputs": [
        {
          "internalType": "uint256[]",
          "name": "tokenIds",
          "type": "uint256[]"
        }
      ],
      "name": "claim",
      "outputs": [],
      "stateMutability": "nonpayable",
      "type": "function"
    },
    {
      "inputs": [
        {
          "internalType": "uint256",
          "name": "stakingPeriod",
          "type": "uint256"
        }
      ],
      "name": "getDailyReward",
      "outputs": [
        {
          "internalType": "uint256",
          "name": "dailyReward",
          "type": "uint256"
        }
      ],
      "stateMutability": "pure",
      "type": "function"
    },
    {
      "inputs": [
        {
          "internalType": "uint256",
          "name": "_tokenId",
          "type": "uint256"
        }
      ],
      "name": "getRewardEarnedPerNft",
      "outputs": [
        {
          "internalType": "uint256",
          "name": "rewardEarned",
          "type": "uint256"
        }
      ],
      "stateMutability": "view",
      "type": "function"
    },
    {
      "inputs": [
        {
          "internalType": "address",
          "name": "user",
          "type": "address"
        }
      ],
      "name": "getTotalRewardEarned",
      "outputs": [
        {
          "internalType": "uint256",
          "name": "rewardEarned",
          "type": "uint256"
        }
      ],
      "stateMutability": "view",
      "type": "function"
    },
    {
      "inputs": [
        {
          "internalType": "address",
          "name": "",
          "type": "address"
        },
        {
          "internalType": "address",
          "name": "",
          "type": "address"
        },
        {
          "internalType": "uint256",
          "name": "",
          "type": "uint256"
        },
        {
          "internalType": "bytes",
          "name": "",
          "type": "bytes"
        }
      ],
      "name": "onERC721Received",
      "outputs": [
        {
          "internalType": "bytes4",
          "name": "",
          "type": "bytes4"
        }
      ],
      "stateMutability": "pure",
      "type": "function"
    },
    {
      "inputs": [],
      "name": "owner",
      "outputs": [
        {
          "internalType": "address",
          "name": "",
          "type": "address"
        }
      ],
      "stateMutability": "view",
      "type": "function"
    },
    {
      "inputs": [],
      "name": "renounceOwnership",
      "outputs": [],
      "stateMutability": "nonpayable",
      "type": "function"
    },
    {
      "inputs": [
        {
          "internalType": "uint256[]",
          "name": "tokenIds",
          "type": "uint256[]"
        }
      ],
      "name": "stake",
      "outputs": [],
      "stateMutability": "nonpayable",
      "type": "function"
    },
    {
      "inputs": [
        {
          "internalType": "address",
          "name": "user",
          "type": "address"
        }
      ],
      "name": "tokensOfOwner",
      "outputs": [
        {
          "internalType": "uint256[]",
          "name": "tokens",
          "type": "uint256[]"
        }
      ],
      "stateMutability": "view",
      "type": "function"
    },
    {
      "inputs": [],
      "name": "totalItemsStaked",
      "outputs": [
        {
          "internalType": "uint256",
          "name": "",
          "type": "uint256"
        }
      ],
      "stateMutability": "view",
      "type": "function"
    },
    {
      "inputs": [
        {
          "internalType": "address",
          "name": "newOwner",
          "type": "address"
        }
      ],
      "name": "transferOwnership",
      "outputs": [],
      "stateMutability": "nonpayable",
      "type": "function"
    },
    {
      "inputs": [
        {
          "internalType": "uint256[]",
          "name": "tokenIds",
          "type": "uint256[]"
        }
      ],
      "name": "unstake",
      "outputs": [],
      "stateMutability": "nonpayable",
      "type": "function"
    },
    {
      "inputs": [
        {
          "internalType": "address",
          "name": "_nftAddress",
          "type": "address"
        },
        {
          "internalType": "address",
          "name": "_tokenAddress",
          "type": "address"
        }
      ],
      "name": "updateVaultInterface",
      "outputs": [],
      "stateMutability": "nonpayable",
      "type": "function"
    }
  ],
  "bytecode": "0x60806040523480156200001157600080fd5b5060405162001d9738038062001d97833981810160405281019062000037919062000217565b620000576200004b620000e160201b60201c565b620000e960201b60201c565b81600260006101000a81548173ffffffffffffffffffffffffffffffffffffffff021916908373ffffffffffffffffffffffffffffffffffffffff16021790555080600360006101000a81548173ffffffffffffffffffffffffffffffffffffffff021916908373ffffffffffffffffffffffffffffffffffffffff16021790555050506200025e565b600033905090565b60008060009054906101000a900473ffffffffffffffffffffffffffffffffffffffff169050816000806101000a81548173ffffffffffffffffffffffffffffffffffffffff021916908373ffffffffffffffffffffffffffffffffffffffff1602179055508173ffffffffffffffffffffffffffffffffffffffff168173ffffffffffffffffffffffffffffffffffffffff167f8be0079c531659141344cd1fd0a4f28419497f9722a3daafe3b4186f6b6457e060405160405180910390a35050565b600080fd5b600073ffffffffffffffffffffffffffffffffffffffff82169050919050565b6000620001df82620001b2565b9050919050565b620001f181620001d2565b8114620001fd57600080fd5b50565b6000815190506200021181620001e6565b92915050565b60008060408385031215620002315762000230620001ad565b5b6000620002418582860162000200565b9250506020620002548582860162000200565b9150509250929050565b611b29806200026e6000396000f3fe608060405234801561001057600080fd5b50600436106100ea5760003560e01c806370a082311161008c5780638da5cb5b116100665780638da5cb5b1461025b578063d88d200014610279578063e449f341146102a9578063f2fde38b146102c5576100ea565b806370a08231146101f1578063715018a6146102215780638462151c1461022b576100ea565b806333e58779116100c857806333e5877914610157578063454938e0146101755780635704589c146101a55780636ba4c138146101d5576100ea565b80630fbf0a93146100ef578063150b7a021461010b57806325ae6bae1461013b575b600080fd5b610109600480360381019061010491906112e3565b6102e1565b005b6101256004803603810190610120919061141a565b61063c565b60405161013291906114dd565b60405180910390f35b610155600480360381019061015091906114f8565b610651565b005b61015f6106df565b60405161016c9190611547565b60405180910390f35b61018f600480360381019061018a9190611562565b6106e5565b60405161019c9190611547565b60405180910390f35b6101bf60048036038101906101ba919061158f565b6107c4565b6040516101cc9190611547565b60405180910390f35b6101ef60048036038101906101ea91906112e3565b610852565b005b61020b60048036038101906102069190611562565b610863565b6040516102189190611547565b60405180910390f35b610229610985565b005b61024560048036038101906102409190611562565b610999565b604051610252919061167a565b60405180910390f35b610263610b5a565b60405161027091906116ab565b60405180910390f35b610293600480360381019061028e919061158f565b610b83565b6040516102a09190611547565b60405180910390f35b6102c360048036038101906102be91906112e3565b610b95565b005b6102df60048036038101906102da9190611562565b610ba6565b005b600080600084849050905060005b818110156106205785858281811061030a576103096116c6565b5b905060200201359350600073ffffffffffffffffffffffffffffffffffffffff166004600086815260200190815260200160002060000160009054906101000a900473ffffffffffffffffffffffffffffffffffffffff1673ffffffffffffffffffffffffffffffffffffffff16146103af576040517fe172d6ce00000000000000000000000000000000000000000000000000000000815260040160405180910390fd5b3373ffffffffffffffffffffffffffffffffffffffff16600260009054906101000a900473ffffffffffffffffffffffffffffffffffffffff1673ffffffffffffffffffffffffffffffffffffffff16636352211e866040518263ffffffff1660e01b81526004016104219190611547565b602060405180830381865afa15801561043e573d6000803e3d6000fd5b505050506040513d601f19601f82011682018060405250810190610462919061170a565b73ffffffffffffffffffffffffffffffffffffffff16146104af576040517fc7ceed2a00000000000000000000000000000000000000000000000000000000815260040160405180910390fd5b600260009054906101000a900473ffffffffffffffffffffffffffffffffffffffff1673ffffffffffffffffffffffffffffffffffffffff166342842e0e3330876040518463ffffffff1660e01b815260040161050e93929190611737565b600060405180830381600087803b15801561052857600080fd5b505af115801561053c573d6000803e3d6000fd5b5050505060405180604001604052803373ffffffffffffffffffffffffffffffffffffffff168152602001428152506004600086815260200190815260200160002060008201518160000160006101000a81548173ffffffffffffffffffffffffffffffffffffffff021916908373ffffffffffffffffffffffffffffffffffffffff160217905550602082015181600101559050507f718e21c56085c799f7e177a1bd6691cdbf9c929d9760133b991577c4887152908433426040516106059392919061176e565b60405180910390a182806001019350508060010190506102ef565b508160015461062f91906117d4565b6001819055505050505050565b600063150b7a0260e01b905095945050505050565b610659610c29565b80600360006101000a81548173ffffffffffffffffffffffffffffffffffffffff021916908373ffffffffffffffffffffffffffffffffffffffff16021790555081600260006101000a81548173ffffffffffffffffffffffffffffffffffffffff021916908373ffffffffffffffffffffffffffffffffffffffff1602179055505050565b60015481565b60008060006106f384610999565b905060008151905060005b818110156107ac5760006004600085848151811061071f5761071e6116c6565b5b60200260200101518152602001908152602001600020600101549050600081426107499190611808565b9050600061075682610ca7565b905062015180670de0b6b3a764000083836064610773919061183c565b61077d919061183c565b610787919061183c565b61079191906118ad565b8761079c91906117d4565b96508360010193505050506106fe565b506064836107ba91906118ad565b9350505050919050565b60008060046000848152602001908152602001600020600101549050600081426107ee9190611808565b905060006107fb82610ca7565b9050600062015180670de0b6b3a76400008484606461081a919061183c565b610824919061183c565b61082e919061183c565b61083891906118ad565b905060648161084791906118ad565b945050505050919050565b61085f3383836000610d1f565b5050565b600080600260009054906101000a900473ffffffffffffffffffffffffffffffffffffffff1673ffffffffffffffffffffffffffffffffffffffff166318160ddd6040518163ffffffff1660e01b8152600401602060405180830381865afa1580156108d3573d6000803e3d6000fd5b505050506040513d601f19601f820116820180604052508101906108f791906118f3565b905060005b81811161097e578373ffffffffffffffffffffffffffffffffffffffff166004600083815260200190815260200160002060000160009054906101000a900473ffffffffffffffffffffffffffffffffffffffff1673ffffffffffffffffffffffffffffffffffffffff1603610973576001830192505b8060010190506108fc565b5050919050565b61098d610c29565b6109976000610f91565b565b606060006109a683610863565b90506000600260009054906101000a900473ffffffffffffffffffffffffffffffffffffffff1673ffffffffffffffffffffffffffffffffffffffff166318160ddd6040518163ffffffff1660e01b8152600401602060405180830381865afa158015610a17573d6000803e3d6000fd5b505050506040513d601f19601f82011682018060405250810190610a3b91906118f3565b90508167ffffffffffffffff811115610a5757610a56611920565b5b604051908082528060200260200182016040528015610a855781602001602082028036833780820191505090505b5092506000808303610a9957505050610b55565b60005b828111610b50578573ffffffffffffffffffffffffffffffffffffffff166004600083815260200190815260200160002060000160009054906101000a900473ffffffffffffffffffffffffffffffffffffffff1673ffffffffffffffffffffffffffffffffffffffff1603610b355780858381518110610b2057610b1f6116c6565b5b60200260200101818152505081806001019250505b838203610b455750505050610b55565b806001019050610a9c565b505050505b919050565b60008060009054906101000a900473ffffffffffffffffffffffffffffffffffffffff16905090565b6000610b8e82610ca7565b9050919050565b610ba23383836001610d1f565b5050565b610bae610c29565b600073ffffffffffffffffffffffffffffffffffffffff168173ffffffffffffffffffffffffffffffffffffffff1603610c1d576040517f08c379a0000000000000000000000000000000000000000000000000000000008152600401610c14906119d2565b60405180910390fd5b610c2681610f91565b50565b610c31611055565b73ffffffffffffffffffffffffffffffffffffffff16610c4f610b5a565b73ffffffffffffffffffffffffffffffffffffffff1614610ca5576040517f08c379a0000000000000000000000000000000000000000000000000000000008152600401610c9c90611a3e565b60405180910390fd5b565b600062278d008211610cbc5760019050610d1a565b62278d006003610ccc919061183c565b821015610cdc5760029050610d19565b62278d006006610cec919061183c565b821015610cfc5760049050610d18565b62278d006006610d0c919061183c565b8210610d1757600890505b5b5b5b919050565b60008060008086869050905060005b81811015610e9457878782818110610d4957610d486116c6565b5b9050602002013594508873ffffffffffffffffffffffffffffffffffffffff166004600087815260200190815260200160002060000160009054906101000a900473ffffffffffffffffffffffffffffffffffffffff1673ffffffffffffffffffffffffffffffffffffffff1614610ded576040517fc7ceed2a00000000000000000000000000000000000000000000000000000000815260040160405180910390fd5b60006004600087815260200190815260200160002060010154905060008142610e169190611808565b90506000610e2382610ca7565b905062015180670de0b6b3a764000083836064610e40919061183c565b610e4a919061183c565b610e54919061183c565b610e5e91906118ad565b87610e6991906117d4565b965042600460008a815260200190815260200160002060010181905550836001019350505050610d2e565b50606483610ea291906118ad565b915060008214610f7557600360009054906101000a900473ffffffffffffffffffffffffffffffffffffffff1673ffffffffffffffffffffffffffffffffffffffff166340c10f1989846040518363ffffffff1660e01b8152600401610f09929190611a5e565b600060405180830381600087803b158015610f2357600080fd5b505af1158015610f37573d6000803e3d6000fd5b505050507fd8138f8a3f377c5259ca548e70e4c2de94f129f5a11036a15b69513cba2b426a8883604051610f6c929190611a5e565b60405180910390a15b8415610f8757610f8688888861105d565b5b5050505050505050565b60008060009054906101000a900473ffffffffffffffffffffffffffffffffffffffff169050816000806101000a81548173ffffffffffffffffffffffffffffffffffffffff021916908373ffffffffffffffffffffffffffffffffffffffff1602179055508173ffffffffffffffffffffffffffffffffffffffff168173ffffffffffffffffffffffffffffffffffffffff167f8be0079c531659141344cd1fd0a4f28419497f9722a3daafe3b4186f6b6457e060405160405180910390a35050565b600033905090565b600080600084849050905060005b8181101561125757858582818110611086576110856116c6565b5b9050602002013593508673ffffffffffffffffffffffffffffffffffffffff166004600086815260200190815260200160002060000160009054906101000a900473ffffffffffffffffffffffffffffffffffffffff1673ffffffffffffffffffffffffffffffffffffffff1614611133576040517f08c379a000000000000000000000000000000000000000000000000000000000815260040161112a90611ad3565b60405180910390fd5b600260009054906101000a900473ffffffffffffffffffffffffffffffffffffffff1673ffffffffffffffffffffffffffffffffffffffff166342842e0e3089876040518463ffffffff1660e01b815260040161119293929190611737565b600060405180830381600087803b1580156111ac57600080fd5b505af11580156111c0573d6000803e3d6000fd5b5050505060046000858152602001908152602001600020600080820160006101000a81549073ffffffffffffffffffffffffffffffffffffffff0219169055600182016000905550507f175dc19fb4fe98420fd7e191684ecdc746cb34c7b69706c3713328d25f7be20584884260405161123c9392919061176e565b60405180910390a1828060010193505080600101905061106b565b50816001546112669190611808565b600181905550505050505050565b600080fd5b600080fd5b600080fd5b600080fd5b600080fd5b60008083601f8401126112a3576112a261127e565b5b8235905067ffffffffffffffff8111156112c0576112bf611283565b5b6020830191508360208202830111156112dc576112db611288565b5b9250929050565b600080602083850312156112fa576112f9611274565b5b600083013567ffffffffffffffff81111561131857611317611279565b5b6113248582860161128d565b92509250509250929050565b600073ffffffffffffffffffffffffffffffffffffffff82169050919050565b600061135b82611330565b9050919050565b61136b81611350565b811461137657600080fd5b50565b60008135905061138881611362565b92915050565b6000819050919050565b6113a18161138e565b81146113ac57600080fd5b50565b6000813590506113be81611398565b92915050565b60008083601f8401126113da576113d961127e565b5b8235905067ffffffffffffffff8111156113f7576113f6611283565b5b60208301915083600182028301111561141357611412611288565b5b9250929050565b60008060008060006080868803121561143657611435611274565b5b600061144488828901611379565b955050602061145588828901611379565b9450506040611466888289016113af565b935050606086013567ffffffffffffffff81111561148757611486611279565b5b611493888289016113c4565b92509250509295509295909350565b60007fffffffff0000000000000000000000000000000000000000000000000000000082169050919050565b6114d7816114a2565b82525050565b60006020820190506114f260008301846114ce565b92915050565b6000806040838503121561150f5761150e611274565b5b600061151d85828601611379565b925050602061152e85828601611379565b9150509250929050565b6115418161138e565b82525050565b600060208201905061155c6000830184611538565b92915050565b60006020828403121561157857611577611274565b5b600061158684828501611379565b91505092915050565b6000602082840312156115a5576115a4611274565b5b60006115b3848285016113af565b91505092915050565b600081519050919050565b600082825260208201905092915050565b6000819050602082019050919050565b6115f18161138e565b82525050565b600061160383836115e8565b60208301905092915050565b6000602082019050919050565b6000611627826115bc565b61163181856115c7565b935061163c836115d8565b8060005b8381101561166d57815161165488826115f7565b975061165f8361160f565b925050600181019050611640565b5085935050505092915050565b60006020820190508181036000830152611694818461161c565b905092915050565b6116a581611350565b82525050565b60006020820190506116c0600083018461169c565b92915050565b7f4e487b7100000000000000000000000000000000000000000000000000000000600052603260045260246000fd5b60008151905061170481611362565b92915050565b6000602082840312156117205761171f611274565b5b600061172e848285016116f5565b91505092915050565b600060608201905061174c600083018661169c565b611759602083018561169c565b6117666040830184611538565b949350505050565b60006060820190506117836000830186611538565b611790602083018561169c565b61179d6040830184611538565b949350505050565b7f4e487b7100000000000000000000000000000000000000000000000000000000600052601160045260246000fd5b60006117df8261138e565b91506117ea8361138e565b9250828201905080821115611802576118016117a5565b5b92915050565b60006118138261138e565b915061181e8361138e565b9250828203905081811115611836576118356117a5565b5b92915050565b60006118478261138e565b91506118528361138e565b92508282026118608161138e565b91508282048414831517611877576118766117a5565b5b5092915050565b7f4e487b7100000000000000000000000000000000000000000000000000000000600052601260045260246000fd5b60006118b88261138e565b91506118c38361138e565b9250826118d3576118d261187e565b5b828204905092915050565b6000815190506118ed81611398565b92915050565b60006020828403121561190957611908611274565b5b6000611917848285016118de565b91505092915050565b7f4e487b7100000000000000000000000000000000000000000000000000000000600052604160045260246000fd5b600082825260208201905092915050565b7f4f776e61626c653a206e6577206f776e657220697320746865207a65726f206160008201527f6464726573730000000000000000000000000000000000000000000000000000602082015250565b60006119bc60268361194f565b91506119c782611960565b604082019050919050565b600060208201905081810360008301526119eb816119af565b9050919050565b7f4f776e61626c653a2063616c6c6572206973206e6f7420746865206f776e6572600082015250565b6000611a2860208361194f565b9150611a33826119f2565b602082019050919050565b60006020820190508181036000830152611a5781611a1b565b9050919050565b6000604082019050611a73600083018561169c565b611a806020830184611538565b9392505050565b7f4e6f74204f776e65720000000000000000000000000000000000000000000000600082015250565b6000611abd60098361194f565b9150611ac882611a87565b602082019050919050565b60006020820190508181036000830152611aec81611ab0565b905091905056fea26469706673582212208d41eeff88ff280c5f79f117e465562e984e2411919266ea2f94640625a53eb064736f6c63430008110033",
  "linkReferences": {},
  "deployedLinkReferences": {}
}